{
  "contractName": "StarNetwork",
  "abi": [
    {
      "inputs": [],
      "stateMutability": "payable",
      "type": "constructor",
      "payable": true
    },
    {
      "anonymous": false,
      "inputs": [
        {
          "indexed": true,
          "internalType": "address",
          "name": "owner",
          "type": "address"
        },
        {
          "indexed": true,
          "internalType": "address",
          "name": "approved",
          "type": "address"
        },
        {
          "indexed": true,
          "internalType": "uint256",
          "name": "tokenId",
          "type": "uint256"
        }
      ],
      "name": "Approval",
      "type": "event"
    },
    {
      "anonymous": false,
      "inputs": [
        {
          "indexed": true,
          "internalType": "address",
          "name": "owner",
          "type": "address"
        },
        {
          "indexed": true,
          "internalType": "address",
          "name": "operator",
          "type": "address"
        },
        {
          "indexed": false,
          "internalType": "bool",
          "name": "approved",
          "type": "bool"
        }
      ],
      "name": "ApprovalForAll",
      "type": "event"
    },
    {
      "anonymous": false,
      "inputs": [
        {
          "indexed": true,
          "internalType": "address",
          "name": "from",
          "type": "address"
        },
        {
          "indexed": true,
          "internalType": "address",
          "name": "to",
          "type": "address"
        },
        {
          "indexed": true,
          "internalType": "uint256",
          "name": "tokenId",
          "type": "uint256"
        }
      ],
      "name": "Transfer",
      "type": "event"
    },
    {
      "inputs": [
        {
          "internalType": "address",
          "name": "to",
          "type": "address"
        },
        {
          "internalType": "uint256",
          "name": "tokenId",
          "type": "uint256"
        }
      ],
      "name": "approve",
      "outputs": [],
      "stateMutability": "nonpayable",
      "type": "function"
    },
    {
      "inputs": [
        {
          "internalType": "address",
          "name": "owner",
          "type": "address"
        }
      ],
      "name": "balanceOf",
      "outputs": [
        {
          "internalType": "uint256",
          "name": "",
          "type": "uint256"
        }
      ],
      "stateMutability": "view",
      "type": "function",
      "constant": true
    },
    {
      "inputs": [],
      "name": "baseURI",
      "outputs": [
        {
          "internalType": "string",
          "name": "",
          "type": "string"
        }
      ],
      "stateMutability": "view",
      "type": "function",
      "constant": true
    },
    {
      "inputs": [
        {
          "internalType": "uint256",
          "name": "tokenId",
          "type": "uint256"
        }
      ],
      "name": "getApproved",
      "outputs": [
        {
          "internalType": "address",
          "name": "",
          "type": "address"
        }
      ],
      "stateMutability": "view",
      "type": "function",
      "constant": true
    },
    {
      "inputs": [
        {
          "internalType": "address",
          "name": "owner",
          "type": "address"
        },
        {
          "internalType": "address",
          "name": "operator",
          "type": "address"
        }
      ],
      "name": "isApprovedForAll",
      "outputs": [
        {
          "internalType": "bool",
          "name": "",
          "type": "bool"
        }
      ],
      "stateMutability": "view",
      "type": "function",
      "constant": true
    },
    {
      "inputs": [],
      "name": "name",
      "outputs": [
        {
          "internalType": "string",
          "name": "",
          "type": "string"
        }
      ],
      "stateMutability": "view",
      "type": "function",
      "constant": true
    },
    {
      "inputs": [
        {
          "internalType": "uint256",
          "name": "tokenId",
          "type": "uint256"
        }
      ],
      "name": "ownerOf",
      "outputs": [
        {
          "internalType": "address",
          "name": "",
          "type": "address"
        }
      ],
      "stateMutability": "view",
      "type": "function",
      "constant": true
    },
    {
      "inputs": [
        {
          "internalType": "address",
          "name": "from",
          "type": "address"
        },
        {
          "internalType": "address",
          "name": "to",
          "type": "address"
        },
        {
          "internalType": "uint256",
          "name": "tokenId",
          "type": "uint256"
        }
      ],
      "name": "safeTransferFrom",
      "outputs": [],
      "stateMutability": "nonpayable",
      "type": "function"
    },
    {
      "inputs": [
        {
          "internalType": "address",
          "name": "from",
          "type": "address"
        },
        {
          "internalType": "address",
          "name": "to",
          "type": "address"
        },
        {
          "internalType": "uint256",
          "name": "tokenId",
          "type": "uint256"
        },
        {
          "internalType": "bytes",
          "name": "_data",
          "type": "bytes"
        }
      ],
      "name": "safeTransferFrom",
      "outputs": [],
      "stateMutability": "nonpayable",
      "type": "function"
    },
    {
      "inputs": [
        {
          "internalType": "address",
          "name": "operator",
          "type": "address"
        },
        {
          "internalType": "bool",
          "name": "approved",
          "type": "bool"
        }
      ],
      "name": "setApprovalForAll",
      "outputs": [],
      "stateMutability": "nonpayable",
      "type": "function"
    },
    {
      "inputs": [
        {
          "internalType": "bytes4",
          "name": "interfaceId",
          "type": "bytes4"
        }
      ],
      "name": "supportsInterface",
      "outputs": [
        {
          "internalType": "bool",
          "name": "",
          "type": "bool"
        }
      ],
      "stateMutability": "view",
      "type": "function",
      "constant": true
    },
    {
      "inputs": [],
      "name": "symbol",
      "outputs": [
        {
          "internalType": "string",
          "name": "",
          "type": "string"
        }
      ],
      "stateMutability": "view",
      "type": "function",
      "constant": true
    },
    {
      "inputs": [
        {
          "internalType": "uint256",
          "name": "index",
          "type": "uint256"
        }
      ],
      "name": "tokenByIndex",
      "outputs": [
        {
          "internalType": "uint256",
          "name": "",
          "type": "uint256"
        }
      ],
      "stateMutability": "view",
      "type": "function",
      "constant": true
    },
    {
      "inputs": [
        {
          "internalType": "uint256",
          "name": "",
          "type": "uint256"
        }
      ],
      "name": "tokenId_Price",
      "outputs": [
        {
          "internalType": "uint256",
          "name": "",
          "type": "uint256"
        }
      ],
      "stateMutability": "view",
      "type": "function",
      "constant": true
    },
    {
      "inputs": [
        {
          "internalType": "uint256",
          "name": "",
          "type": "uint256"
        }
      ],
      "name": "tokenId_StarInfo",
      "outputs": [
        {
          "internalType": "string",
          "name": "name",
          "type": "string"
        }
      ],
      "stateMutability": "view",
      "type": "function",
      "constant": true
    },
    {
      "inputs": [
        {
          "internalType": "string",
          "name": "",
          "type": "string"
        }
      ],
      "name": "tokenName_StarInfo",
      "outputs": [
        {
          "internalType": "string",
          "name": "name",
          "type": "string"
        }
      ],
      "stateMutability": "view",
      "type": "function",
      "constant": true
    },
    {
      "inputs": [
        {
          "internalType": "address",
          "name": "owner",
          "type": "address"
        },
        {
          "internalType": "uint256",
          "name": "index",
          "type": "uint256"
        }
      ],
      "name": "tokenOfOwnerByIndex",
      "outputs": [
        {
          "internalType": "uint256",
          "name": "",
          "type": "uint256"
        }
      ],
      "stateMutability": "view",
      "type": "function",
      "constant": true
    },
    {
      "inputs": [
        {
          "internalType": "uint256",
          "name": "tokenId",
          "type": "uint256"
        }
      ],
      "name": "tokenURI",
      "outputs": [
        {
          "internalType": "string",
          "name": "",
          "type": "string"
        }
      ],
      "stateMutability": "view",
      "type": "function",
      "constant": true
    },
    {
      "inputs": [],
      "name": "totalSupply",
      "outputs": [
        {
          "internalType": "uint256",
          "name": "",
          "type": "uint256"
        }
      ],
      "stateMutability": "view",
      "type": "function",
      "constant": true
    },
    {
      "inputs": [
        {
          "internalType": "address",
          "name": "from",
          "type": "address"
        },
        {
          "internalType": "address",
          "name": "to",
          "type": "address"
        },
        {
          "internalType": "uint256",
          "name": "tokenId",
          "type": "uint256"
        }
      ],
      "name": "transferFrom",
      "outputs": [],
      "stateMutability": "nonpayable",
      "type": "function"
    },
    {
      "inputs": [
        {
          "internalType": "string",
          "name": "name",
          "type": "string"
        }
      ],
      "name": "createStar",
      "outputs": [],
      "stateMutability": "nonpayable",
      "type": "function"
    },
    {
      "inputs": [
        {
          "internalType": "uint256",
          "name": "tokenId",
          "type": "uint256"
        }
      ],
      "name": "lookupStar",
      "outputs": [
        {
          "internalType": "string",
          "name": "name",
          "type": "string"
        },
        {
          "internalType": "bool",
          "name": "forSale",
          "type": "bool"
        },
        {
          "internalType": "uint256",
          "name": "price",
          "type": "uint256"
        }
      ],
      "stateMutability": "view",
      "type": "function",
      "constant": true
    },
    {
      "inputs": [
        {
          "internalType": "uint256",
          "name": "tokenId",
          "type": "uint256"
        },
        {
          "internalType": "uint256",
          "name": "price",
          "type": "uint256"
        }
      ],
      "name": "listStarForBarter",
      "outputs": [],
      "stateMutability": "nonpayable",
      "type": "function"
    },
    {
      "inputs": [
        {
          "internalType": "uint256",
          "name": "tokenId",
          "type": "uint256"
        }
      ],
      "name": "buyStar",
      "outputs": [],
      "stateMutability": "payable",
      "type": "function",
      "payable": true
    },
    {
      "inputs": [
        {
          "internalType": "uint256",
          "name": "senderToken",
          "type": "uint256"
        },
        {
          "internalType": "uint256",
          "name": "tradedToken",
          "type": "uint256"
        }
      ],
      "name": "exchangeStar",
      "outputs": [],
      "stateMutability": "nonpayable",
      "type": "function"
    },
    {
      "inputs": [
        {
          "internalType": "address",
          "name": "to",
          "type": "address"
        },
        {
          "internalType": "uint256",
          "name": "tokenId",
          "type": "uint256"
        }
      ],
      "name": "transferStar",
      "outputs": [],
      "stateMutability": "nonpayable",
      "type": "function"
    }
  ],
  "bytecode": "0x60806040526040518060400160405280600b81526020017f537461724e6574776f726b0000000000000000000000000000000000000000008152506040518060400160405280600581526020017f535441524e000000000000000000000000000000000000000000000000000000815250620000886301ffc9a760e01b6200010a60201b60201c565b8160069080519060200190620000a092919062000213565b508060079080519060200190620000b992919062000213565b50620000d26380ac58cd60e01b6200010a60201b60201c565b620000ea635b5e139f60e01b6200010a60201b60201c565b6200010263780e9d6360e01b6200010a60201b60201c565b5050620002c2565b63ffffffff60e01b817bffffffffffffffffffffffffffffffffffffffffffffffffffffffff19161415620001a7576040517f08c379a000000000000000000000000000000000000000000000000000000000815260040180806020018281038252601c8152602001807f4552433136353a20696e76616c696420696e746572666163652069640000000081525060200191505060405180910390fd5b6001600080837bffffffffffffffffffffffffffffffffffffffffffffffffffffffff19167bffffffffffffffffffffffffffffffffffffffffffffffffffffffff1916815260200190815260200160002060006101000a81548160ff02191690831515021790555050565b828054600181600116156101000203166002900490600052602060002090601f016020900481019282601f106200025657805160ff191683800117855562000287565b8280016001018555821562000287579182015b828111156200028657825182559160200191906001019062000269565b5b5090506200029691906200029a565b5090565b620002bf91905b80821115620002bb576000816000905550600101620002a1565b5090565b90565b613b5080620002d26000396000f3fe6080604052600436106101815760003560e01c80636991c121116100d1578063b88d4fde1161008a578063e7152a5c11610064578063e7152a5c14610be1578063e985e9c514610c3c578063ec39c4ea14610cc5578063f124348e14610d8d57610181565b8063b88d4fde14610967578063b9dbe70d14610a79578063c87b56dd14610b2d57610181565b80636991c121146106fb5780636c0360eb1461074057806370a08231146107d057806395d89b4114610835578063a22cb465146108c5578063a61f359f1461092257610181565b806323b872dd1161013e5780633a225da2116101185780633a225da2146104f057806342842e0e146105b65780634f6ccce7146106315780636352211e1461068057610181565b806323b872dd146103d85780632f1c34ef146104535780632f745c591461048157610181565b806301ffc9a71461018657806306fdde03146101f8578063081812fc14610288578063095ea7b31461030357806318160ddd1461035e578063199ce8b014610389575b600080fd5b34801561019257600080fd5b506101de600480360360208110156101a957600080fd5b8101908080357bffffffffffffffffffffffffffffffffffffffffffffffffffffffff19169060200190929190505050610ece565b604051808215151515815260200191505060405180910390f35b34801561020457600080fd5b5061020d610f35565b6040518080602001828103825283818151815260200191508051906020019080838360005b8381101561024d578082015181840152602081019050610232565b50505050905090810190601f16801561027a5780820380516001836020036101000a031916815260200191505b509250505060405180910390f35b34801561029457600080fd5b506102c1600480360360208110156102ab57600080fd5b8101908080359060200190929190505050610fd7565b604051808273ffffffffffffffffffffffffffffffffffffffff1673ffffffffffffffffffffffffffffffffffffffff16815260200191505060405180910390f35b34801561030f57600080fd5b5061035c6004803603604081101561032657600080fd5b81019080803573ffffffffffffffffffffffffffffffffffffffff16906020019092919080359060200190929190505050611072565b005b34801561036a57600080fd5b506103736111b6565b6040518082815260200191505060405180910390f35b34801561039557600080fd5b506103c2600480360360208110156103ac57600080fd5b81019080803590602001909291905050506111c7565b6040518082815260200191505060405180910390f35b3480156103e457600080fd5b50610451600480360360608110156103fb57600080fd5b81019080803573ffffffffffffffffffffffffffffffffffffffff169060200190929190803573ffffffffffffffffffffffffffffffffffffffff169060200190929190803590602001909291905050506111df565b005b61047f6004803603602081101561046957600080fd5b8101908080359060200190929190505050611255565b005b34801561048d57600080fd5b506104da600480360360408110156104a457600080fd5b81019080803573ffffffffffffffffffffffffffffffffffffffff1690602001909291908035906020019092919050505061141c565b6040518082815260200191505060405180910390f35b3480156104fc57600080fd5b506105296004803603602081101561051357600080fd5b8101908080359060200190929190505050611477565b604051808060200184151515158152602001838152602001828103825285818151815260200191508051906020019080838360005b8381101561057957808201518184015260208101905061055e565b50505050905090810190601f1680156105a65780820380516001836020036101000a031916815260200191505b5094505050505060405180910390f35b3480156105c257600080fd5b5061062f600480360360608110156105d957600080fd5b81019080803573ffffffffffffffffffffffffffffffffffffffff169060200190929190803573ffffffffffffffffffffffffffffffffffffffff16906020019092919080359060200190929190505050611563565b005b34801561063d57600080fd5b5061066a6004803603602081101561065457600080fd5b8101908080359060200190929190505050611583565b6040518082815260200191505060405180910390f35b34801561068c57600080fd5b506106b9600480360360208110156106a357600080fd5b81019080803590602001909291905050506115a6565b604051808273ffffffffffffffffffffffffffffffffffffffff1673ffffffffffffffffffffffffffffffffffffffff16815260200191505060405180910390f35b34801561070757600080fd5b5061073e6004803603604081101561071e57600080fd5b8101908080359060200190929190803590602001909291905050506115dd565b005b34801561074c57600080fd5b506107556117a6565b6040518080602001828103825283818151815260200191508051906020019080838360005b8381101561079557808201518184015260208101905061077a565b50505050905090810190601f1680156107c25780820380516001836020036101000a031916815260200191505b509250505060405180910390f35b3480156107dc57600080fd5b5061081f600480360360208110156107f357600080fd5b81019080803573ffffffffffffffffffffffffffffffffffffffff169060200190929190505050611848565b6040518082815260200191505060405180910390f35b34801561084157600080fd5b5061084a61191d565b6040518080602001828103825283818151815260200191508051906020019080838360005b8381101561088a57808201518184015260208101905061086f565b50505050905090810190601f1680156108b75780820380516001836020036101000a031916815260200191505b509250505060405180910390f35b3480156108d157600080fd5b50610920600480360360408110156108e857600080fd5b81019080803573ffffffffffffffffffffffffffffffffffffffff1690602001909291908035151590602001909291905050506119bf565b005b34801561092e57600080fd5b506109656004803603604081101561094557600080fd5b810190808035906020019092919080359060200190929190505050611b77565b005b34801561097357600080fd5b50610a776004803603608081101561098a57600080fd5b81019080803573ffffffffffffffffffffffffffffffffffffffff169060200190929190803573ffffffffffffffffffffffffffffffffffffffff16906020019092919080359060200190929190803590602001906401000000008111156109f157600080fd5b820183602082011115610a0357600080fd5b80359060200191846001830284011164010000000083111715610a2557600080fd5b91908080601f016020809104026020016040519081016040528093929190818152602001838380828437600081840152601f19601f820116905080830192505050505050509192919290505050611c7c565b005b348015610a8557600080fd5b50610ab260048036036020811015610a9c57600080fd5b8101908080359060200190929190505050611cf4565b6040518080602001828103825283818151815260200191508051906020019080838360005b83811015610af2578082015181840152602081019050610ad7565b50505050905090810190601f168015610b1f5780820380516001836020036101000a031916815260200191505b509250505060405180910390f35b348015610b3957600080fd5b50610b6660048036036020811015610b5057600080fd5b8101908080359060200190929190505050611daa565b6040518080602001828103825283818151815260200191508051906020019080838360005b83811015610ba6578082015181840152602081019050610b8b565b50505050905090810190601f168015610bd35780820380516001836020036101000a031916815260200191505b509250505060405180910390f35b348015610bed57600080fd5b50610c3a60048036036040811015610c0457600080fd5b81019080803573ffffffffffffffffffffffffffffffffffffffff16906020019092919080359060200190929190505050612093565b005b348015610c4857600080fd5b50610cab60048036036040811015610c5f57600080fd5b81019080803573ffffffffffffffffffffffffffffffffffffffff169060200190929190803573ffffffffffffffffffffffffffffffffffffffff169060200190929190505050612130565b604051808215151515815260200191505060405180910390f35b348015610cd157600080fd5b50610d8b60048036036020811015610ce857600080fd5b8101908080359060200190640100000000811115610d0557600080fd5b820183602082011115610d1757600080fd5b80359060200191846001830284011164010000000083111715610d3957600080fd5b91908080601f016020809104026020016040519081016040528093929190818152602001838380828437600081840152601f19601f8201169050808301925050505050505091929192905050506121c4565b005b348015610d9957600080fd5b50610e5360048036036020811015610db057600080fd5b8101908080359060200190640100000000811115610dcd57600080fd5b820183602082011115610ddf57600080fd5b80359060200191846001830284011164010000000083111715610e0157600080fd5b91908080601f016020809104026020016040519081016040528093929190818152602001838380828437600081840152601f19601f82011690508083019250505050505050919291929050505061247d565b6040518080602001828103825283818151815260200191508051906020019080838360005b83811015610e93578082015181840152602081019050610e78565b50505050905090810190601f168015610ec05780820380516001836020036101000a031916815260200191505b509250505060405180910390f35b6000806000837bffffffffffffffffffffffffffffffffffffffffffffffffffffffff19167bffffffffffffffffffffffffffffffffffffffffffffffffffffffff1916815260200190815260200160002060009054906101000a900460ff169050919050565b606060068054600181600116156101000203166002900480601f016020809104026020016040519081016040528092919081815260200182805460018160011615610100020316600290048015610fcd5780601f10610fa257610100808354040283529160200191610fcd565b820191906000526020600020905b815481529060010190602001808311610fb057829003601f168201915b5050505050905090565b6000610fe282612549565b611037576040517f08c379a000000000000000000000000000000000000000000000000000000000815260040180806020018281038252602c815260200180613a19602c913960400191505060405180910390fd5b6004600083815260200190815260200160002060009054906101000a900473ffffffffffffffffffffffffffffffffffffffff169050919050565b600061107d826115a6565b90508073ffffffffffffffffffffffffffffffffffffffff168373ffffffffffffffffffffffffffffffffffffffff161415611104576040517f08c379a0000000000000000000000000000000000000000000000000000000008152600401808060200182810382526021815260200180613a9d6021913960400191505060405180910390fd5b8073ffffffffffffffffffffffffffffffffffffffff16611123612566565b73ffffffffffffffffffffffffffffffffffffffff16148061115257506111518161114c612566565b612130565b5b6111a7576040517f08c379a000000000000000000000000000000000000000000000000000000000815260040180806020018281038252603881526020018061396c6038913960400191505060405180910390fd5b6111b1838361256e565b505050565b60006111c26002612627565b905090565b600d6020528060005260406000206000915090505481565b6111f06111ea612566565b8261263c565b611245576040517f08c379a0000000000000000000000000000000000000000000000000000000008152600401808060200182810382526031815260200180613abe6031913960400191505060405180910390fd5b611250838383612730565b505050565b806000600d600083815260200190815260200160002054116112c2576040517f08c379a000000000000000000000000000000000000000000000000000000000815260040180806020018281038252602a815260200180613826602a913960400191505060405180910390fd5b816000600d6000838152602001908152602001600020549050803411611333576040517f08c379a00000000000000000000000000000000000000000000000000000000081526004018080602001828103825260348152602001806137d06034913960400191505060405180910390fd5b6000600d60008681526020019081526020016000205490506000611356866115a6565b9050600061136382612973565b905061136f3388612982565b61137a8233896111df565b8073ffffffffffffffffffffffffffffffffffffffff166108fc849081150290604051600060405180830381858888f193505050501580156113c0573d6000803e3d6000fd5b5082341115611413573373ffffffffffffffffffffffffffffffffffffffff166108fc8434039081150290604051600060405180830381858888f19350505050158015611411573d6000803e3d6000fd5b505b50505050505050565b600061146f82600160008673ffffffffffffffffffffffffffffffffffffffff1673ffffffffffffffffffffffffffffffffffffffff168152602001908152602001600020612a2590919063ffffffff16565b905092915050565b6060600080600b60008581526020019081526020016000206000018054600181600116156101000203166002900480601f0160208091040260200160405190810160405280929190818152602001828054600181600116156101000203166002900480156115265780601f106114fb57610100808354040283529160200191611526565b820191906000526020600020905b81548152906001019060200180831161150957829003601f168201915b505050505092506000600d600086815260200190815260200160002054119150600d60008581526020019081526020016000205490509193909250565b61157e83838360405180602001604052806000815250611c7c565b505050565b60008061159a836002612a3f90919063ffffffff16565b50905080915050919050565b60006115d6826040518060600160405280602981526020016139ce602991396002612a6e9092919063ffffffff16565b9050919050565b816115e7816115a6565b73ffffffffffffffffffffffffffffffffffffffff163373ffffffffffffffffffffffffffffffffffffffff161461166a576040517f08c379a00000000000000000000000000000000000000000000000000000000081526004018080602001828103825260388152602001806138cc6038913960400191505060405180910390fd5b816000600d600083815260200190815260200160002054116116d7576040517f08c379a000000000000000000000000000000000000000000000000000000000815260040180806020018281038252602a815260200180613826602a913960400191505060405180910390fd5b83836116e2816115a6565b73ffffffffffffffffffffffffffffffffffffffff163373ffffffffffffffffffffffffffffffffffffffff161415611766576040517f08c379a000000000000000000000000000000000000000000000000000000000815260040180806020018281038252602c815260200180613aef602c913960400191505060405180910390fd5b6000611771866115a6565b905061177d3387612982565b6117888133886111df565b6117928188612982565b61179d3382896111df565b50505050505050565b606060098054600181600116156101000203166002900480601f01602080910402602001604051908101604052809291908181526020018280546001816001161561010002031660029004801561183e5780601f106118135761010080835404028352916020019161183e565b820191906000526020600020905b81548152906001019060200180831161182157829003601f168201915b5050505050905090565b60008073ffffffffffffffffffffffffffffffffffffffff168273ffffffffffffffffffffffffffffffffffffffff1614156118cf576040517f08c379a000000000000000000000000000000000000000000000000000000000815260040180806020018281038252602a8152602001806139a4602a913960400191505060405180910390fd5b611916600160008473ffffffffffffffffffffffffffffffffffffffff1673ffffffffffffffffffffffffffffffffffffffff168152602001908152602001600020612a8d565b9050919050565b606060078054600181600116156101000203166002900480601f0160208091040260200160405190810160405280929190818152602001828054600181600116156101000203166002900480156119b55780601f1061198a576101008083540402835291602001916119b5565b820191906000526020600020905b81548152906001019060200180831161199857829003601f168201915b5050505050905090565b6119c7612566565b73ffffffffffffffffffffffffffffffffffffffff168273ffffffffffffffffffffffffffffffffffffffff161415611a68576040517f08c379a00000000000000000000000000000000000000000000000000000000081526004018080602001828103825260198152602001807f4552433732313a20617070726f766520746f2063616c6c65720000000000000081525060200191505060405180910390fd5b8060056000611a75612566565b73ffffffffffffffffffffffffffffffffffffffff1673ffffffffffffffffffffffffffffffffffffffff16815260200190815260200160002060008473ffffffffffffffffffffffffffffffffffffffff1673ffffffffffffffffffffffffffffffffffffffff16815260200190815260200160002060006101000a81548160ff0219169083151502179055508173ffffffffffffffffffffffffffffffffffffffff16611b22612566565b73ffffffffffffffffffffffffffffffffffffffff167f17307eab39ab6107e8899845ad3d59bd9653f200f220920489ca2b5937696c3183604051808215151515815260200191505060405180910390a35050565b81611b81816115a6565b73ffffffffffffffffffffffffffffffffffffffff163373ffffffffffffffffffffffffffffffffffffffff1614611c04576040517f08c379a00000000000000000000000000000000000000000000000000000000081526004018080602001828103825260388152602001806138cc6038913960400191505060405180910390fd5b8160008111611c5e576040517f08c379a000000000000000000000000000000000000000000000000000000000815260040180806020018281038252603c815260200180613930603c913960400191505060405180910390fd5b82600d60008681526020019081526020016000208190555050505050565b611c8d611c87612566565b8361263c565b611ce2576040517f08c379a0000000000000000000000000000000000000000000000000000000008152600401808060200182810382526031815260200180613abe6031913960400191505060405180910390fd5b611cee84848484612aa2565b50505050565b600b602052806000526040600020600091509050806000018054600181600116156101000203166002900480601f016020809104026020016040519081016040528092919081815260200182805460018160011615610100020316600290048015611da05780601f10611d7557610100808354040283529160200191611da0565b820191906000526020600020905b815481529060010190602001808311611d8357829003601f168201915b5050505050905081565b6060611db582612549565b611e0a576040517f08c379a000000000000000000000000000000000000000000000000000000000815260040180806020018281038252602f815260200180613a6e602f913960400191505060405180910390fd5b6060600860008481526020019081526020016000208054600181600116156101000203166002900480601f016020809104026020016040519081016040528092919081815260200182805460018160011615610100020316600290048015611eb35780601f10611e8857610100808354040283529160200191611eb3565b820191906000526020600020905b815481529060010190602001808311611e9657829003601f168201915b50505050509050600060098054600181600116156101000203166002900490501415611ee2578091505061208e565b600081511115611fbb576009816040516020018083805460018160011615610100020316600290048015611f4d5780601f10611f2b576101008083540402835291820191611f4d565b820191906000526020600020905b815481529060010190602001808311611f39575b505082805190602001908083835b60208310611f7e5780518252602082019150602081019050602083039250611f5b565b6001836020036101000a0380198251168184511680821785525050505050509050019250505060405160208183030381529060405291505061208e565b6009611fc684612b14565b60405160200180838054600181600116156101000203166002900480156120245780601f10612002576101008083540402835291820191612024565b820191906000526020600020905b815481529060010190602001808311612010575b505082805190602001908083835b602083106120555780518252602082019150602081019050602083039250612032565b6001836020036101000a038019825116818451168082178552505050505050905001925050506040516020818303038152906040529150505b919050565b8061209d816115a6565b73ffffffffffffffffffffffffffffffffffffffff163373ffffffffffffffffffffffffffffffffffffffff1614612120576040517f08c379a00000000000000000000000000000000000000000000000000000000081526004018080602001828103825260388152602001806138cc6038913960400191505060405180910390fd5b61212b3384846111df565b505050565b6000600560008473ffffffffffffffffffffffffffffffffffffffff1673ffffffffffffffffffffffffffffffffffffffff16815260200190815260200160002060008373ffffffffffffffffffffffffffffffffffffffff1673ffffffffffffffffffffffffffffffffffffffff16815260200190815260200160002060009054906101000a900460ff16905092915050565b80806040516020018082805190602001908083835b602083106121fc57805182526020820191506020810190506020830392506121d9565b6001836020036101000a03801982511681845116808217855250505050505090500191505060405160208183030381529060405280519060200120600c826040518082805190602001908083835b6020831061226d578051825260208201915060208101905060208303925061224a565b6001836020036101000a038019825116818451168082178552505050505050905001915050908152602001604051809103902060000160405160200180828054600181600116156101000203166002900480156123015780601f106122df576101008083540402835291820191612301565b820191906000526020600020905b8154815290600101906020018083116122ed575b5050915050604051602081830303815290604052805190602001201415612373576040517f08c379a00000000000000000000000000000000000000000000000000000000081526004018080602001828103825260268152602001806138a66026913960400191505060405180910390fd5b61237b613717565b6040518060200160405280848152509050612396600a612c5b565b60006123a2600a612c71565b905081600b600083815260200190815260200160002060008201518160000190805190602001906123d492919061372a565b5090505081600c856040518082805190602001908083835b6020831061240f57805182526020820191506020810190506020830392506123ec565b6001836020036101000a0380198251168184511680821785525050505050509050019150509081526020016040518091039020600082015181600001908051906020019061245e92919061372a565b5090505061246c3382612c7f565b6124773060016119bf565b50505050565b600c81805160208101820180518482526020830160208501208183528095505050505050600091509050806000018054600181600116156101000203166002900480601f01602080910402602001604051908101604052809291908181526020018280546001816001161561010002031660029004801561253f5780601f106125145761010080835404028352916020019161253f565b820191906000526020600020905b81548152906001019060200180831161252257829003601f168201915b5050505050905081565b600061255f826002612e7390919063ffffffff16565b9050919050565b600033905090565b816004600083815260200190815260200160002060006101000a81548173ffffffffffffffffffffffffffffffffffffffff021916908373ffffffffffffffffffffffffffffffffffffffff160217905550808273ffffffffffffffffffffffffffffffffffffffff166125e1836115a6565b73ffffffffffffffffffffffffffffffffffffffff167f8c5be1e5ebec7d5bd14f71427d1e84f3dd0314c0f7b2291e5b200ac8c7c3b92560405160405180910390a45050565b600061263582600001612e8d565b9050919050565b600061264782612549565b61269c576040517f08c379a000000000000000000000000000000000000000000000000000000000815260040180806020018281038252602c815260200180613904602c913960400191505060405180910390fd5b60006126a7836115a6565b90508073ffffffffffffffffffffffffffffffffffffffff168473ffffffffffffffffffffffffffffffffffffffff16148061271657508373ffffffffffffffffffffffffffffffffffffffff166126fe84610fd7565b73ffffffffffffffffffffffffffffffffffffffff16145b8061272757506127268185612130565b5b91505092915050565b8273ffffffffffffffffffffffffffffffffffffffff16612750826115a6565b73ffffffffffffffffffffffffffffffffffffffff16146127bc576040517f08c379a0000000000000000000000000000000000000000000000000000000008152600401808060200182810382526029815260200180613a456029913960400191505060405180910390fd5b600073ffffffffffffffffffffffffffffffffffffffff168273ffffffffffffffffffffffffffffffffffffffff161415612842576040517f08c379a00000000000000000000000000000000000000000000000000000000081526004018080602001828103825260248152602001806138826024913960400191505060405180910390fd5b61284d838383612e9e565b61285860008261256e565b6128a981600160008673ffffffffffffffffffffffffffffffffffffffff1673ffffffffffffffffffffffffffffffffffffffff168152602001908152602001600020612ea390919063ffffffff16565b506128fb81600160008573ffffffffffffffffffffffffffffffffffffffff1673ffffffffffffffffffffffffffffffffffffffff168152602001908152602001600020612ebd90919063ffffffff16565b5061291281836002612ed79092919063ffffffff16565b50808273ffffffffffffffffffffffffffffffffffffffff168473ffffffffffffffffffffffffffffffffffffffff167fddf252ad1be2c89b69c2b068fc378daa952ba7f163c4a11628f55a4df523b3ef60405160405180910390a4505050565b60008082905080915050919050565b3073ffffffffffffffffffffffffffffffffffffffff1663095ea7b383836040518363ffffffff1660e01b8152600401808373ffffffffffffffffffffffffffffffffffffffff1673ffffffffffffffffffffffffffffffffffffffff16815260200182815260200192505050600060405180830381600087803b158015612a0957600080fd5b505af1158015612a1d573d6000803e3d6000fd5b505050505050565b6000612a348360000183612f0c565b60001c905092915050565b600080600080612a528660000186612f8f565b915091508160001c8160001c8090509350935050509250929050565b6000612a81846000018460001b84613028565b60001c90509392505050565b6000612a9b8260000161311e565b9050919050565b612aad848484612730565b612ab98484848461312f565b612b0e576040517f08c379a00000000000000000000000000000000000000000000000000000000081526004018080602001828103825260328152602001806138506032913960400191505060405180910390fd5b50505050565b60606000821415612b5c576040518060400160405280600181526020017f30000000000000000000000000000000000000000000000000000000000000008152509050612c56565b600082905060005b60008214612b86578080600101915050600a8281612b7e57fe5b049150612b64565b60608167ffffffffffffffff81118015612b9f57600080fd5b506040519080825280601f01601f191660200182016040528015612bd25781602001600182028036833780820191505090505b50905060006001830390508593505b60008414612c4e57600a8481612bf357fe5b0660300160f81b82828060019003935081518110612c0d57fe5b60200101907effffffffffffffffffffffffffffffffffffffffffffffffffffffffffffff1916908160001a905350600a8481612c4657fe5b049350612be1565b819450505050505b919050565b6001816000016000828254019250508190555050565b600081600001549050919050565b600073ffffffffffffffffffffffffffffffffffffffff168273ffffffffffffffffffffffffffffffffffffffff161415612d22576040517f08c379a00000000000000000000000000000000000000000000000000000000081526004018080602001828103825260208152602001807f4552433732313a206d696e7420746f20746865207a65726f206164647265737381525060200191505060405180910390fd5b612d2b81612549565b15612d9e576040517f08c379a000000000000000000000000000000000000000000000000000000000815260040180806020018281038252601c8152602001807f4552433732313a20746f6b656e20616c7265616479206d696e7465640000000081525060200191505060405180910390fd5b612daa60008383612e9e565b612dfb81600160008573ffffffffffffffffffffffffffffffffffffffff1673ffffffffffffffffffffffffffffffffffffffff168152602001908152602001600020612ebd90919063ffffffff16565b50612e1281836002612ed79092919063ffffffff16565b50808273ffffffffffffffffffffffffffffffffffffffff16600073ffffffffffffffffffffffffffffffffffffffff167fddf252ad1be2c89b69c2b068fc378daa952ba7f163c4a11628f55a4df523b3ef60405160405180910390a45050565b6000612e85836000018360001b613452565b905092915050565b600081600001805490509050919050565b505050565b6000612eb5836000018360001b613475565b905092915050565b6000612ecf836000018360001b61355d565b905092915050565b6000612f03846000018460001b8473ffffffffffffffffffffffffffffffffffffffff1660001b6135cd565b90509392505050565b600081836000018054905011612f6d576040517f08c379a00000000000000000000000000000000000000000000000000000000081526004018080602001828103825260228152602001806138046022913960400191505060405180910390fd5b826000018281548110612f7c57fe5b9060005260206000200154905092915050565b60008082846000018054905011612ff1576040517f08c379a00000000000000000000000000000000000000000000000000000000081526004018080602001828103825260228152602001806139f76022913960400191505060405180910390fd5b600084600001848154811061300257fe5b906000526020600020906002020190508060000154816001015492509250509250929050565b600080846001016000858152602001908152602001600020549050600081141583906130ef576040517f08c379a00000000000000000000000000000000000000000000000000000000081526004018080602001828103825283818151815260200191508051906020019080838360005b838110156130b4578082015181840152602081019050613099565b50505050905090810190601f1680156130e15780820380516001836020036101000a031916815260200191505b509250505060405180910390fd5b5084600001600182038154811061310257fe5b9060005260206000209060020201600101549150509392505050565b600081600001805490509050919050565b60006131508473ffffffffffffffffffffffffffffffffffffffff166136a9565b61315d576001905061344a565b600060608573ffffffffffffffffffffffffffffffffffffffff1663150b7a0260e01b613188612566565b898888604051602401808573ffffffffffffffffffffffffffffffffffffffff1673ffffffffffffffffffffffffffffffffffffffff1681526020018473ffffffffffffffffffffffffffffffffffffffff1673ffffffffffffffffffffffffffffffffffffffff16815260200183815260200180602001828103825283818151815260200191508051906020019080838360005b8381101561323857808201518184015260208101905061321d565b50505050905090810190601f1680156132655780820380516001836020036101000a031916815260200191505b5095505050505050604051602081830303815290604052907bffffffffffffffffffffffffffffffffffffffffffffffffffffffff19166020820180517bffffffffffffffffffffffffffffffffffffffffffffffffffffffff83818316178352505050506040518082805190602001908083835b602083106132fd57805182526020820191506020810190506020830392506132da565b6001836020036101000a0380198251168184511680821785525050505050509050019150506000604051808303816000865af19150503d806000811461335f576040519150601f19603f3d011682016040523d82523d6000602084013e613364565b606091505b5091509150816133d2576000815111156133815780518082602001fd5b6040517f08c379a00000000000000000000000000000000000000000000000000000000081526004018080602001828103825260328152602001806138506032913960400191505060405180910390fd5b60008180602001905160208110156133e957600080fd5b8101908080519060200190929190505050905063150b7a0260e01b7bffffffffffffffffffffffffffffffffffffffffffffffffffffffff1916817bffffffffffffffffffffffffffffffffffffffffffffffffffffffff19161493505050505b949350505050565b600080836001016000848152602001908152602001600020541415905092915050565b6000808360010160008481526020019081526020016000205490506000811461355157600060018203905060006001866000018054905003905060008660000182815481106134c057fe5b90600052602060002001549050808760000184815481106134dd57fe5b906000526020600020018190555060018301876001016000838152602001908152602001600020819055508660000180548061351557fe5b60019003818190600052602060002001600090559055866001016000878152602001908152602001600020600090556001945050505050613557565b60009150505b92915050565b600061356983836136f4565b6135c25782600001829080600181540180825580915050600190039060005260206000200160009091909190915055826000018054905083600101600084815260200190815260200160002081905550600190506135c7565b600090505b92915050565b6000808460010160008581526020019081526020016000205490506000811415613674578460000160405180604001604052808681526020018581525090806001815401808255809150506001900390600052602060002090600202016000909190919091506000820151816000015560208201518160010155505084600001805490508560010160008681526020019081526020016000208190555060019150506136a2565b8285600001600183038154811061368757fe5b90600052602060002090600202016001018190555060009150505b9392505050565b60008060007fc5d2460186f7233c927e7db2dcc703c0e500b653ca82273b7bfad8045d85a47060001b9050833f91508082141580156136eb57506000801b8214155b92505050919050565b600080836001016000848152602001908152602001600020541415905092915050565b6040518060200160405280606081525090565b828054600181600116156101000203166002900490600052602060002090601f016020900481019282601f1061376b57805160ff1916838001178555613799565b82800160010185558215613799579182015b8281111561379857825182559160200191906001019061377d565b5b5090506137a691906137aa565b5090565b6137cc91905b808211156137c85760008160009055506001016137b0565b5090565b9056fe4572726f723a20496e73756666696369656e742066756e64732070726f766964656420746f20707572636861736520737461722e456e756d657261626c655365743a20696e646578206f7574206f6620626f756e64734572726f723a20546869732073746172206973206e6f7420666f722073616c65206f722074726164652e4552433732313a207472616e7366657220746f206e6f6e20455243373231526563656976657220696d706c656d656e7465724552433732313a207472616e7366657220746f20746865207a65726f20616464726573734572726f723a20536f6d656f6e6520616c7265616479206f776e73207468697320737461722e4572726f723a204f6e6c7920746865206f776e6572206f66207468697320737461722063616e206c69737420697420666f722073616c652e4552433732313a206f70657261746f7220717565727920666f72206e6f6e6578697374656e7420746f6b656e4572726f723a20412070726963652067726561746572207468616e207a65726f20697320726571756972656420746f2073656c6c206120737461722e4552433732313a20617070726f76652063616c6c6572206973206e6f74206f776e6572206e6f7220617070726f76656420666f7220616c6c4552433732313a2062616c616e636520717565727920666f7220746865207a65726f20616464726573734552433732313a206f776e657220717565727920666f72206e6f6e6578697374656e7420746f6b656e456e756d657261626c654d61703a20696e646578206f7574206f6620626f756e64734552433732313a20617070726f76656420717565727920666f72206e6f6e6578697374656e7420746f6b656e4552433732313a207472616e73666572206f6620746f6b656e2074686174206973206e6f74206f776e4552433732314d657461646174613a2055524920717565727920666f72206e6f6e6578697374656e7420746f6b656e4552433732313a20617070726f76616c20746f2063757272656e74206f776e65724552433732313a207472616e736665722063616c6c6572206973206e6f74206f776e6572206e6f7220617070726f7665644572726f723a20596f752063616e6e6f74207472616465207374617273207769746820796f757273656c662ea26469706673582212201c57e1f639356ab805ac8bddefaad7d61129485021b6cfcfa4ea94bf7d45ed5364736f6c63430006080033",
  "immutableReferences": {},
  "source": "pragma solidity ^0.6.0;\n\nimport '../node_modules/@openzeppelin/contracts/token/ERC721/ERC721.sol';\nimport \"../node_modules/@openzeppelin/contracts/utils/Counters.sol\";\n\n\ncontract StarNetwork is ERC721 {\n    using Counters for Counters.Counter;\n    Counters.Counter private generateId;\n\n    constructor() ERC721('StarNetwork', 'STARN') public payable {\n    }\n\n    struct Star {\n        string name;\n    }\n\n    mapping (uint256 => Star) public tokenId_StarInfo;\n    mapping (string => Star) public tokenName_StarInfo;\n    mapping (uint256 => uint256) public tokenId_Price;\n\n\n    modifier isUnique(string memory name) {\n        require(\n            keccak256(abi.encodePacked(tokenName_StarInfo[name].name)) != keccak256(abi.encodePacked(name)),\n            \"Error: Someone already owns this star.\"\n        );\n        _;\n    }\n\n    modifier onlyOwnerOf(uint256 tokenId) {\n        require(\n            msg.sender == ownerOf(tokenId),\n            'Error: Only the owner of this star can list it for sale.'\n        );\n        _;\n    }\n\n    modifier greaterThanZero(uint256 price) {\n        require(\n            price > 0,\n            \"Error: A price greater than zero is required to sell a star.\"\n        );\n        _;\n    }\n\n    modifier isUpForBarter(uint256 tokenId) {\n        require(\n            tokenId_Price[tokenId] > 0,\n            'Error: This star is not for sale or trade.'\n        );\n        _;\n    }\n\n    modifier hasEnoughFunds(uint256 tokenId) {\n        uint256 starCost = tokenId_Price[tokenId];\n        require(\n            msg.value > starCost,\n            'Error: Insufficient funds provided to purchase star.'\n        );\n        _;\n    }\n\n    modifier notSameOwner(uint256 senderToken, uint256 tradedToken) {\n        require(\n            msg.sender != ownerOf(tradedToken),\n            'Error: You cannot trade stars with yourself.'\n        );\n        _;\n    }\n\n    function makePayable(address provided)\n        internal pure returns (address payable seller) {\n            uint160 formattedProvided = uint160(provided);\n            seller = address(formattedProvided);\n    }\n\n    function approveTransaction(address buyer, uint256 tokenId)\n        internal {\n            this.approve(buyer, tokenId);\n    }\n\n    function createStar(string memory name)\n        public isUnique(name) {\n            Star memory createdStar = Star(name);\n            generateId.increment();\n            uint256 tokenId = generateId.current();\n            tokenId_StarInfo[tokenId] = createdStar;\n            tokenName_StarInfo[name] = createdStar;\n            _mint(msg.sender, tokenId);\n            setApprovalForAll(address(this), true);\n    }\n\n    function lookupStar(uint256 tokenId)\n        public view returns (string memory name, bool forSale,  uint256 price) {\n            name = tokenId_StarInfo[tokenId].name;\n            forSale = tokenId_Price[tokenId] > 0;\n            price = tokenId_Price[tokenId];\n    }\n\n    function listStarForBarter(uint256 tokenId, uint256 price)\n        public onlyOwnerOf(tokenId) greaterThanZero(price) {\n            tokenId_Price[tokenId] = price;\n    }\n\n    function buyStar(uint256 tokenId)\n        public isUpForBarter(tokenId) hasEnoughFunds(tokenId) payable {\n            uint256 starCost = tokenId_Price[tokenId];\n            address ownerAddress = ownerOf(tokenId);\n            address payable ownerAddressPayable = makePayable(ownerAddress);\n            approveTransaction(msg.sender, tokenId);\n            transferFrom(ownerAddress, msg.sender, tokenId);\n            ownerAddressPayable.transfer(starCost);\n            if (msg.value > starCost) {\n                msg.sender.transfer(msg.value - starCost);\n            }\n    }\n\n    function exchangeStar(uint256 senderToken, uint256 tradedToken) public\n        onlyOwnerOf(senderToken) isUpForBarter(tradedToken) notSameOwner(senderToken, tradedToken) {\n            address tradedTokenOwner = ownerOf(tradedToken);\n            approveTransaction(msg.sender, tradedToken);\n            transferFrom(tradedTokenOwner, msg.sender, tradedToken);\n            approveTransaction(tradedTokenOwner, senderToken);\n            transferFrom(msg.sender, tradedTokenOwner, senderToken);\n    }\n\n    function transferStar(address to, uint256 tokenId) public\n        onlyOwnerOf(tokenId) {\n            transferFrom(msg.sender, to, tokenId);\n    }\n}",
  "sourcePath": "/Users/sameer/starNotary/contracts/StarNetwork.sol",
  "compiler": {
    "name": "solc",
    "version": "0.6.8+commit.0bbfe453.Emscripten.clang"
  },
  "schemaVersion": "3.1.0",
  "updatedAt": "2020-05-19T00:43:21.291Z",
  "networkType": "ethereum",
  "devdoc": {
    "methods": {
      "approve(address,uint256)": {
        "details": "Approves another address to transfer the given token ID The zero address indicates there is no approved address. There can only be one approved address per token at a given time. Can only be called by the token owner or an approved operator.",
        "params": {
          "to": "address to be approved for the given token ID",
          "tokenId": "uint256 ID of the token to be approved"
        }
      },
      "balanceOf(address)": {
        "details": "Gets the balance of the specified address.",
        "params": {
          "owner": "address to query the balance of"
        },
        "returns": {
          "_0": "uint256 representing the amount owned by the passed address"
        }
      },
      "baseURI()": {
        "details": "Returns the base URI set via {_setBaseURI}. This will be automatically added as a prefix in {tokenURI} to each token's URI, or to the token ID if no specific URI is set for that token ID."
      },
      "getApproved(uint256)": {
        "details": "Gets the approved address for a token ID, or zero if no address set Reverts if the token ID does not exist.",
        "params": {
          "tokenId": "uint256 ID of the token to query the approval of"
        },
        "returns": {
          "_0": "address currently approved for the given token ID"
        }
      },
      "isApprovedForAll(address,address)": {
        "details": "Tells whether an operator is approved by a given owner.",
        "params": {
          "operator": "operator address which you want to query the approval of",
          "owner": "owner address which you want to query the approval of"
        },
        "returns": {
          "_0": "bool whether the given operator is approved by the given owner"
        }
      },
      "name()": {
        "details": "Gets the token name.",
        "returns": {
          "_0": "string representing the token name"
        }
      },
      "ownerOf(uint256)": {
        "details": "Gets the owner of the specified token ID.",
        "params": {
          "tokenId": "uint256 ID of the token to query the owner of"
        },
        "returns": {
          "_0": "address currently marked as the owner of the given token ID"
        }
      },
      "safeTransferFrom(address,address,uint256)": {
        "details": "Safely transfers the ownership of a given token ID to another address If the target address is a contract, it must implement {IERC721Receiver-onERC721Received}, which is called upon a safe transfer, and return the magic value `bytes4(keccak256(\"onERC721Received(address,address,uint256,bytes)\"))`; otherwise, the transfer is reverted. Requires the msg.sender to be the owner, approved, or operator",
        "params": {
          "from": "current owner of the token",
          "to": "address to receive the ownership of the given token ID",
          "tokenId": "uint256 ID of the token to be transferred"
        }
      },
      "safeTransferFrom(address,address,uint256,bytes)": {
        "details": "Safely transfers the ownership of a given token ID to another address If the target address is a contract, it must implement {IERC721Receiver-onERC721Received}, which is called upon a safe transfer, and return the magic value `bytes4(keccak256(\"onERC721Received(address,address,uint256,bytes)\"))`; otherwise, the transfer is reverted. Requires the _msgSender() to be the owner, approved, or operator",
        "params": {
          "_data": "bytes data to send along with a safe transfer check",
          "from": "current owner of the token",
          "to": "address to receive the ownership of the given token ID",
          "tokenId": "uint256 ID of the token to be transferred"
        }
      },
      "setApprovalForAll(address,bool)": {
        "details": "Sets or unsets the approval of a given operator An operator is allowed to transfer all tokens of the sender on their behalf.",
        "params": {
          "approved": "representing the status of the approval to be set",
          "operator": "operator address to set the approval"
        }
      },
      "supportsInterface(bytes4)": {
        "details": "See {IERC165-supportsInterface}.     * Time complexity O(1), guaranteed to always use less than 30 000 gas."
      },
      "symbol()": {
        "details": "Gets the token symbol.",
        "returns": {
          "_0": "string representing the token symbol"
        }
      },
      "tokenByIndex(uint256)": {
        "details": "Gets the token ID at a given index of all the tokens in this contract Reverts if the index is greater or equal to the total number of tokens.",
        "params": {
          "index": "uint256 representing the index to be accessed of the tokens list"
        },
        "returns": {
          "_0": "uint256 token ID at the given index of the tokens list"
        }
      },
      "tokenOfOwnerByIndex(address,uint256)": {
        "details": "Gets the token ID at a given index of the tokens list of the requested owner.",
        "params": {
          "index": "uint256 representing the index to be accessed of the requested tokens list",
          "owner": "address owning the tokens list to be accessed"
        },
        "returns": {
          "_0": "uint256 token ID at the given index of the tokens list owned by the requested address"
        }
      },
      "tokenURI(uint256)": {
        "details": "Returns the URI for a given token ID. May return an empty string.     * If a base URI is set (via {_setBaseURI}), it is added as a prefix to the token's own URI (via {_setTokenURI}).     * If there is a base URI but no token URI, the token's ID will be used as its URI when appending it to the base URI. This pattern for autogenerated token URIs can lead to large gas savings.     * .Examples |=== |`_setBaseURI()` |`_setTokenURI()` |`tokenURI()` | \"\" | \"\" | \"\" | \"\" | \"token.uri/123\" | \"token.uri/123\" | \"token.uri/\" | \"123\" | \"token.uri/123\" | \"token.uri/\" | \"\" | \"token.uri/<tokenId>\" |===     * Requirements:     * - `tokenId` must exist."
      },
      "totalSupply()": {
        "details": "Gets the total amount of tokens stored by the contract.",
        "returns": {
          "_0": "uint256 representing the total amount of tokens"
        }
      },
      "transferFrom(address,address,uint256)": {
        "details": "Transfers the ownership of a given token ID to another address. Usage of this method is discouraged, use {safeTransferFrom} whenever possible. Requires the msg.sender to be the owner, approved, or operator.",
        "params": {
          "from": "current owner of the token",
          "to": "address to receive the ownership of the given token ID",
          "tokenId": "uint256 ID of the token to be transferred"
        }
      }
    }
  },
  "userdoc": {
    "methods": {}
  }
}