{
  "contractName": "StarNetwork",
  "abi": [
    {
      "inputs": [],
      "stateMutability": "payable",
      "type": "constructor",
      "payable": true
    },
    {
      "anonymous": false,
      "inputs": [
        {
          "indexed": true,
          "internalType": "address",
          "name": "owner",
          "type": "address"
        },
        {
          "indexed": true,
          "internalType": "address",
          "name": "approved",
          "type": "address"
        },
        {
          "indexed": true,
          "internalType": "uint256",
          "name": "tokenId",
          "type": "uint256"
        }
      ],
      "name": "Approval",
      "type": "event"
    },
    {
      "anonymous": false,
      "inputs": [
        {
          "indexed": true,
          "internalType": "address",
          "name": "owner",
          "type": "address"
        },
        {
          "indexed": true,
          "internalType": "address",
          "name": "operator",
          "type": "address"
        },
        {
          "indexed": false,
          "internalType": "bool",
          "name": "approved",
          "type": "bool"
        }
      ],
      "name": "ApprovalForAll",
      "type": "event"
    },
    {
      "anonymous": false,
      "inputs": [
        {
          "indexed": true,
          "internalType": "address",
          "name": "from",
          "type": "address"
        },
        {
          "indexed": true,
          "internalType": "address",
          "name": "to",
          "type": "address"
        },
        {
          "indexed": true,
          "internalType": "uint256",
          "name": "tokenId",
          "type": "uint256"
        }
      ],
      "name": "Transfer",
      "type": "event"
    },
    {
      "inputs": [
        {
          "internalType": "address",
          "name": "to",
          "type": "address"
        },
        {
          "internalType": "uint256",
          "name": "tokenId",
          "type": "uint256"
        }
      ],
      "name": "approve",
      "outputs": [],
      "stateMutability": "nonpayable",
      "type": "function"
    },
    {
      "inputs": [
        {
          "internalType": "address",
          "name": "owner",
          "type": "address"
        }
      ],
      "name": "balanceOf",
      "outputs": [
        {
          "internalType": "uint256",
          "name": "",
          "type": "uint256"
        }
      ],
      "stateMutability": "view",
      "type": "function",
      "constant": true
    },
    {
      "inputs": [],
      "name": "baseURI",
      "outputs": [
        {
          "internalType": "string",
          "name": "",
          "type": "string"
        }
      ],
      "stateMutability": "view",
      "type": "function",
      "constant": true
    },
    {
      "inputs": [
        {
          "internalType": "uint256",
          "name": "tokenId",
          "type": "uint256"
        }
      ],
      "name": "getApproved",
      "outputs": [
        {
          "internalType": "address",
          "name": "",
          "type": "address"
        }
      ],
      "stateMutability": "view",
      "type": "function",
      "constant": true
    },
    {
      "inputs": [
        {
          "internalType": "address",
          "name": "owner",
          "type": "address"
        },
        {
          "internalType": "address",
          "name": "operator",
          "type": "address"
        }
      ],
      "name": "isApprovedForAll",
      "outputs": [
        {
          "internalType": "bool",
          "name": "",
          "type": "bool"
        }
      ],
      "stateMutability": "view",
      "type": "function",
      "constant": true
    },
    {
      "inputs": [],
      "name": "name",
      "outputs": [
        {
          "internalType": "string",
          "name": "",
          "type": "string"
        }
      ],
      "stateMutability": "view",
      "type": "function",
      "constant": true
    },
    {
      "inputs": [
        {
          "internalType": "uint256",
          "name": "tokenId",
          "type": "uint256"
        }
      ],
      "name": "ownerOf",
      "outputs": [
        {
          "internalType": "address",
          "name": "",
          "type": "address"
        }
      ],
      "stateMutability": "view",
      "type": "function",
      "constant": true
    },
    {
      "inputs": [
        {
          "internalType": "address",
          "name": "from",
          "type": "address"
        },
        {
          "internalType": "address",
          "name": "to",
          "type": "address"
        },
        {
          "internalType": "uint256",
          "name": "tokenId",
          "type": "uint256"
        }
      ],
      "name": "safeTransferFrom",
      "outputs": [],
      "stateMutability": "nonpayable",
      "type": "function"
    },
    {
      "inputs": [
        {
          "internalType": "address",
          "name": "from",
          "type": "address"
        },
        {
          "internalType": "address",
          "name": "to",
          "type": "address"
        },
        {
          "internalType": "uint256",
          "name": "tokenId",
          "type": "uint256"
        },
        {
          "internalType": "bytes",
          "name": "_data",
          "type": "bytes"
        }
      ],
      "name": "safeTransferFrom",
      "outputs": [],
      "stateMutability": "nonpayable",
      "type": "function"
    },
    {
      "inputs": [
        {
          "internalType": "address",
          "name": "operator",
          "type": "address"
        },
        {
          "internalType": "bool",
          "name": "approved",
          "type": "bool"
        }
      ],
      "name": "setApprovalForAll",
      "outputs": [],
      "stateMutability": "nonpayable",
      "type": "function"
    },
    {
      "inputs": [
        {
          "internalType": "bytes4",
          "name": "interfaceId",
          "type": "bytes4"
        }
      ],
      "name": "supportsInterface",
      "outputs": [
        {
          "internalType": "bool",
          "name": "",
          "type": "bool"
        }
      ],
      "stateMutability": "view",
      "type": "function",
      "constant": true
    },
    {
      "inputs": [],
      "name": "symbol",
      "outputs": [
        {
          "internalType": "string",
          "name": "",
          "type": "string"
        }
      ],
      "stateMutability": "view",
      "type": "function",
      "constant": true
    },
    {
      "inputs": [
        {
          "internalType": "uint256",
          "name": "index",
          "type": "uint256"
        }
      ],
      "name": "tokenByIndex",
      "outputs": [
        {
          "internalType": "uint256",
          "name": "",
          "type": "uint256"
        }
      ],
      "stateMutability": "view",
      "type": "function",
      "constant": true
    },
    {
      "inputs": [
        {
          "internalType": "uint256",
          "name": "",
          "type": "uint256"
        }
      ],
      "name": "tokenId_Price",
      "outputs": [
        {
          "internalType": "uint256",
          "name": "",
          "type": "uint256"
        }
      ],
      "stateMutability": "view",
      "type": "function",
      "constant": true
    },
    {
      "inputs": [
        {
          "internalType": "uint256",
          "name": "",
          "type": "uint256"
        }
      ],
      "name": "tokenId_StarInfo",
      "outputs": [
        {
          "internalType": "string",
          "name": "name",
          "type": "string"
        },
        {
          "internalType": "uint256",
          "name": "id",
          "type": "uint256"
        }
      ],
      "stateMutability": "view",
      "type": "function",
      "constant": true
    },
    {
      "inputs": [
        {
          "internalType": "string",
          "name": "",
          "type": "string"
        }
      ],
      "name": "tokenName_StarInfo",
      "outputs": [
        {
          "internalType": "string",
          "name": "name",
          "type": "string"
        },
        {
          "internalType": "uint256",
          "name": "id",
          "type": "uint256"
        }
      ],
      "stateMutability": "view",
      "type": "function",
      "constant": true
    },
    {
      "inputs": [
        {
          "internalType": "address",
          "name": "owner",
          "type": "address"
        },
        {
          "internalType": "uint256",
          "name": "index",
          "type": "uint256"
        }
      ],
      "name": "tokenOfOwnerByIndex",
      "outputs": [
        {
          "internalType": "uint256",
          "name": "",
          "type": "uint256"
        }
      ],
      "stateMutability": "view",
      "type": "function",
      "constant": true
    },
    {
      "inputs": [
        {
          "internalType": "uint256",
          "name": "tokenId",
          "type": "uint256"
        }
      ],
      "name": "tokenURI",
      "outputs": [
        {
          "internalType": "string",
          "name": "",
          "type": "string"
        }
      ],
      "stateMutability": "view",
      "type": "function",
      "constant": true
    },
    {
      "inputs": [],
      "name": "totalSupply",
      "outputs": [
        {
          "internalType": "uint256",
          "name": "",
          "type": "uint256"
        }
      ],
      "stateMutability": "view",
      "type": "function",
      "constant": true
    },
    {
      "inputs": [
        {
          "internalType": "address",
          "name": "from",
          "type": "address"
        },
        {
          "internalType": "address",
          "name": "to",
          "type": "address"
        },
        {
          "internalType": "uint256",
          "name": "tokenId",
          "type": "uint256"
        }
      ],
      "name": "transferFrom",
      "outputs": [],
      "stateMutability": "nonpayable",
      "type": "function"
    },
    {
      "inputs": [
        {
          "internalType": "string",
          "name": "name",
          "type": "string"
        }
      ],
      "name": "createStar",
      "outputs": [],
      "stateMutability": "nonpayable",
      "type": "function"
    },
    {
      "inputs": [
        {
          "internalType": "uint256",
          "name": "tokenId",
          "type": "uint256"
        }
      ],
      "name": "lookupStarById",
      "outputs": [
        {
          "internalType": "string",
          "name": "name",
          "type": "string"
        },
        {
          "internalType": "bool",
          "name": "forSale",
          "type": "bool"
        },
        {
          "internalType": "uint256",
          "name": "price",
          "type": "uint256"
        },
        {
          "internalType": "address",
          "name": "owner",
          "type": "address"
        }
      ],
      "stateMutability": "view",
      "type": "function",
      "constant": true
    },
    {
      "inputs": [
        {
          "internalType": "string",
          "name": "name",
          "type": "string"
        }
      ],
      "name": "lookupStarByName",
      "outputs": [
        {
          "internalType": "uint256",
          "name": "tokenId",
          "type": "uint256"
        },
        {
          "internalType": "bool",
          "name": "forSale",
          "type": "bool"
        },
        {
          "internalType": "uint256",
          "name": "price",
          "type": "uint256"
        },
        {
          "internalType": "address",
          "name": "owner",
          "type": "address"
        }
      ],
      "stateMutability": "view",
      "type": "function",
      "constant": true
    },
    {
      "inputs": [
        {
          "internalType": "uint256",
          "name": "tokenId",
          "type": "uint256"
        },
        {
          "internalType": "uint256",
          "name": "price",
          "type": "uint256"
        }
      ],
      "name": "listStarForBarter",
      "outputs": [],
      "stateMutability": "nonpayable",
      "type": "function"
    },
    {
      "inputs": [
        {
          "internalType": "uint256",
          "name": "tokenId",
          "type": "uint256"
        }
      ],
      "name": "buyStar",
      "outputs": [],
      "stateMutability": "payable",
      "type": "function",
      "payable": true
    },
    {
      "inputs": [
        {
          "internalType": "uint256",
          "name": "senderToken",
          "type": "uint256"
        },
        {
          "internalType": "uint256",
          "name": "tradedToken",
          "type": "uint256"
        }
      ],
      "name": "exchangeStar",
      "outputs": [],
      "stateMutability": "nonpayable",
      "type": "function"
    },
    {
      "inputs": [
        {
          "internalType": "address",
          "name": "to",
          "type": "address"
        },
        {
          "internalType": "uint256",
          "name": "tokenId",
          "type": "uint256"
        }
      ],
      "name": "transferStar",
      "outputs": [],
      "stateMutability": "nonpayable",
      "type": "function"
    }
  ],
  "bytecode": "0x60806040526040518060400160405280600b81526020017f537461724e6574776f726b0000000000000000000000000000000000000000008152506040518060400160405280600581526020017f535441524e000000000000000000000000000000000000000000000000000000815250620000886301ffc9a760e01b6200010a60201b60201c565b8160069080519060200190620000a092919062000213565b508060079080519060200190620000b992919062000213565b50620000d26380ac58cd60e01b6200010a60201b60201c565b620000ea635b5e139f60e01b6200010a60201b60201c565b6200010263780e9d6360e01b6200010a60201b60201c565b5050620002c2565b63ffffffff60e01b817bffffffffffffffffffffffffffffffffffffffffffffffffffffffff19161415620001a7576040517f08c379a000000000000000000000000000000000000000000000000000000000815260040180806020018281038252601c8152602001807f4552433136353a20696e76616c696420696e746572666163652069640000000081525060200191505060405180910390fd5b6001600080837bffffffffffffffffffffffffffffffffffffffffffffffffffffffff19167bffffffffffffffffffffffffffffffffffffffffffffffffffffffff1916815260200190815260200160002060006101000a81548160ff02191690831515021790555050565b828054600181600116156101000203166002900490600052602060002090601f016020900481019282601f106200025657805160ff191683800117855562000287565b8280016001018555821562000287579182015b828111156200028657825182559160200191906001019062000269565b5b5090506200029691906200029a565b5090565b620002bf91905b80821115620002bb576000816000905550600101620002a1565b5090565b90565b613d4180620002d26000396000f3fe60806040526004361061019c5760003560e01c80636991c121116100ec578063b9dbe70d1161008a578063e985e9c511610064578063e985e9c514610cb9578063eb6f7e7814610d42578063ec39c4ea14610e3b578063f124348e14610f035761019c565b8063b9dbe70d14610aef578063c87b56dd14610baa578063e7152a5c14610c5e5761019c565b806395d89b41116100c657806395d89b41146108ab578063a22cb4651461093b578063a61f359f14610998578063b88d4fde146109dd5761019c565b80636991c121146107715780636c0360eb146107b657806370a08231146108465761019c565b806321533081116101595780632f745c59116101335780632f745c59146105bd57806342842e0e1461062c5780634f6ccce7146106a75780636352211e146106f65761019c565b806321533081146103f357806323b872dd146105145780632f1c34ef1461058f5761019c565b806301ffc9a7146101a157806306fdde0314610213578063081812fc146102a3578063095ea7b31461031e57806318160ddd14610379578063199ce8b0146103a4575b600080fd5b3480156101ad57600080fd5b506101f9600480360360208110156101c457600080fd5b8101908080357bffffffffffffffffffffffffffffffffffffffffffffffffffffffff1916906020019092919050505061104b565b604051808215151515815260200191505060405180910390f35b34801561021f57600080fd5b506102286110b2565b6040518080602001828103825283818151815260200191508051906020019080838360005b8381101561026857808201518184015260208101905061024d565b50505050905090810190601f1680156102955780820380516001836020036101000a031916815260200191505b509250505060405180910390f35b3480156102af57600080fd5b506102dc600480360360208110156102c657600080fd5b8101908080359060200190929190505050611154565b604051808273ffffffffffffffffffffffffffffffffffffffff1673ffffffffffffffffffffffffffffffffffffffff16815260200191505060405180910390f35b34801561032a57600080fd5b506103776004803603604081101561034157600080fd5b81019080803573ffffffffffffffffffffffffffffffffffffffff169060200190929190803590602001909291905050506111ef565b005b34801561038557600080fd5b5061038e611333565b6040518082815260200191505060405180910390f35b3480156103b057600080fd5b506103dd600480360360208110156103c757600080fd5b8101908080359060200190929190505050611344565b6040518082815260200191505060405180910390f35b3480156103ff57600080fd5b506104b96004803603602081101561041657600080fd5b810190808035906020019064010000000081111561043357600080fd5b82018360208201111561044557600080fd5b8035906020019184600183028401116401000000008311171561046757600080fd5b91908080601f016020809104026020016040519081016040528093929190818152602001838380828437600081840152601f19601f82011690508083019250505050505050919291929050505061135c565b60405180858152602001841515151581526020018381526020018273ffffffffffffffffffffffffffffffffffffffff1673ffffffffffffffffffffffffffffffffffffffff16815260200194505050505060405180910390f35b34801561052057600080fd5b5061058d6004803603606081101561053757600080fd5b81019080803573ffffffffffffffffffffffffffffffffffffffff169060200190929190803573ffffffffffffffffffffffffffffffffffffffff16906020019092919080359060200190929190505050611412565b005b6105bb600480360360208110156105a557600080fd5b8101908080359060200190929190505050611488565b005b3480156105c957600080fd5b50610616600480360360408110156105e057600080fd5b81019080803573ffffffffffffffffffffffffffffffffffffffff1690602001909291908035906020019092919050505061165f565b6040518082815260200191505060405180910390f35b34801561063857600080fd5b506106a56004803603606081101561064f57600080fd5b81019080803573ffffffffffffffffffffffffffffffffffffffff169060200190929190803573ffffffffffffffffffffffffffffffffffffffff169060200190929190803590602001909291905050506116ba565b005b3480156106b357600080fd5b506106e0600480360360208110156106ca57600080fd5b81019080803590602001909291905050506116da565b6040518082815260200191505060405180910390f35b34801561070257600080fd5b5061072f6004803603602081101561071957600080fd5b81019080803590602001909291905050506116fd565b604051808273ffffffffffffffffffffffffffffffffffffffff1673ffffffffffffffffffffffffffffffffffffffff16815260200191505060405180910390f35b34801561077d57600080fd5b506107b46004803603604081101561079457600080fd5b810190808035906020019092919080359060200190929190505050611734565b005b3480156107c257600080fd5b506107cb611908565b6040518080602001828103825283818151815260200191508051906020019080838360005b8381101561080b5780820151818401526020810190506107f0565b50505050905090810190601f1680156108385780820380516001836020036101000a031916815260200191505b509250505060405180910390f35b34801561085257600080fd5b506108956004803603602081101561086957600080fd5b81019080803573ffffffffffffffffffffffffffffffffffffffff1690602001909291905050506119aa565b6040518082815260200191505060405180910390f35b3480156108b757600080fd5b506108c0611a7f565b6040518080602001828103825283818151815260200191508051906020019080838360005b838110156109005780820151818401526020810190506108e5565b50505050905090810190601f16801561092d5780820380516001836020036101000a031916815260200191505b509250505060405180910390f35b34801561094757600080fd5b506109966004803603604081101561095e57600080fd5b81019080803573ffffffffffffffffffffffffffffffffffffffff169060200190929190803515159060200190929190505050611b21565b005b3480156109a457600080fd5b506109db600480360360408110156109bb57600080fd5b810190808035906020019092919080359060200190929190505050611cd9565b005b3480156109e957600080fd5b50610aed60048036036080811015610a0057600080fd5b81019080803573ffffffffffffffffffffffffffffffffffffffff169060200190929190803573ffffffffffffffffffffffffffffffffffffffff1690602001909291908035906020019092919080359060200190640100000000811115610a6757600080fd5b820183602082011115610a7957600080fd5b80359060200191846001830284011164010000000083111715610a9b57600080fd5b91908080601f016020809104026020016040519081016040528093929190818152602001838380828437600081840152601f19601f820116905080830192505050505050509192919290505050611d83565b005b348015610afb57600080fd5b50610b2860048036036020811015610b1257600080fd5b8101908080359060200190929190505050611dfb565b6040518080602001838152602001828103825284818151815260200191508051906020019080838360005b83811015610b6e578082015181840152602081019050610b53565b50505050905090810190601f168015610b9b5780820380516001836020036101000a031916815260200191505b50935050505060405180910390f35b348015610bb657600080fd5b50610be360048036036020811015610bcd57600080fd5b8101908080359060200190929190505050611eb7565b6040518080602001828103825283818151815260200191508051906020019080838360005b83811015610c23578082015181840152602081019050610c08565b50505050905090810190601f168015610c505780820380516001836020036101000a031916815260200191505b509250505060405180910390f35b348015610c6a57600080fd5b50610cb760048036036040811015610c8157600080fd5b81019080803573ffffffffffffffffffffffffffffffffffffffff169060200190929190803590602001909291905050506121a0565b005b348015610cc557600080fd5b50610d2860048036036040811015610cdc57600080fd5b81019080803573ffffffffffffffffffffffffffffffffffffffff169060200190929190803573ffffffffffffffffffffffffffffffffffffffff16906020019092919050505061223d565b604051808215151515815260200191505060405180910390f35b348015610d4e57600080fd5b50610d7b60048036036020811015610d6557600080fd5b81019080803590602001909291905050506122d1565b6040518080602001851515151581526020018481526020018373ffffffffffffffffffffffffffffffffffffffff1673ffffffffffffffffffffffffffffffffffffffff168152602001828103825286818151815260200191508051906020019080838360005b83811015610dfd578082015181840152602081019050610de2565b50505050905090810190601f168015610e2a5780820380516001836020036101000a031916815260200191505b509550505050505060405180910390f35b348015610e4757600080fd5b50610f0160048036036020811015610e5e57600080fd5b8101908080359060200190640100000000811115610e7b57600080fd5b820183602082011115610e8d57600080fd5b80359060200191846001830284011164010000000083111715610eaf57600080fd5b91908080601f016020809104026020016040519081016040528093929190818152602001838380828437600081840152601f19601f8201169050808301925050505050505091929192905050506123ca565b005b348015610f0f57600080fd5b50610fc960048036036020811015610f2657600080fd5b8101908080359060200190640100000000811115610f4357600080fd5b820183602082011115610f5557600080fd5b80359060200191846001830284011164010000000083111715610f7757600080fd5b91908080601f016020809104026020016040519081016040528093929190818152602001838380828437600081840152601f19601f82011690508083019250505050505050919291929050505061269d565b6040518080602001838152602001828103825284818151815260200191508051906020019080838360005b8381101561100f578082015181840152602081019050610ff4565b50505050905090810190601f16801561103c5780820380516001836020036101000a031916815260200191505b50935050505060405180910390f35b6000806000837bffffffffffffffffffffffffffffffffffffffffffffffffffffffff19167bffffffffffffffffffffffffffffffffffffffffffffffffffffffff1916815260200190815260200160002060009054906101000a900460ff169050919050565b606060068054600181600116156101000203166002900480601f01602080910402602001604051908101604052809291908181526020018280546001816001161561010002031660029004801561114a5780601f1061111f5761010080835404028352916020019161114a565b820191906000526020600020905b81548152906001019060200180831161112d57829003601f168201915b5050505050905090565b600061115f8261276f565b6111b4576040517f08c379a000000000000000000000000000000000000000000000000000000000815260040180806020018281038252602c815260200180613c0a602c913960400191505060405180910390fd5b6004600083815260200190815260200160002060009054906101000a900473ffffffffffffffffffffffffffffffffffffffff169050919050565b60006111fa826116fd565b90508073ffffffffffffffffffffffffffffffffffffffff168373ffffffffffffffffffffffffffffffffffffffff161415611281576040517f08c379a0000000000000000000000000000000000000000000000000000000008152600401808060200182810382526021815260200180613c8e6021913960400191505060405180910390fd5b8073ffffffffffffffffffffffffffffffffffffffff166112a061278c565b73ffffffffffffffffffffffffffffffffffffffff1614806112cf57506112ce816112c961278c565b61223d565b5b611324576040517f08c379a0000000000000000000000000000000000000000000000000000000008152600401808060200182810382526038815260200180613b5d6038913960400191505060405180910390fd5b61132e8383612794565b505050565b600061133f600261284d565b905090565b600d6020528060005260406000206000915090505481565b600080600080600c856040518082805190602001908083835b602083106113985780518252602082019150602081019050602083039250611375565b6001836020036101000a03801982511681845116808217855250505050505090500191505090815260200160405180910390206001015493506000600d600086815260200190815260200160002054119250600d6000858152602001908152602001600020549150611409846116fd565b90509193509193565b61142361141d61278c565b82612862565b611478576040517f08c379a0000000000000000000000000000000000000000000000000000000008152600401808060200182810382526031815260200180613caf6031913960400191505060405180910390fd5b611483838383612956565b505050565b806000600d600083815260200190815260200160002054116114f5576040517f08c379a000000000000000000000000000000000000000000000000000000000815260040180806020018281038252602a815260200180613a53602a913960400191505060405180910390fd5b81600d6000828152602001908152602001600020543411611561576040517f08c379a00000000000000000000000000000000000000000000000000000000081526004018080602001828103825260348152602001806139fd6034913960400191505060405180910390fd5b6000600d60008581526020019081526020016000205490506000611584856116fd565b9050600061159182612b99565b905061159d3387612ba8565b6115a8823388612956565b6115b3306001611b21565b8073ffffffffffffffffffffffffffffffffffffffff166108fc849081150290604051600060405180830381858888f193505050501580156115f9573d6000803e3d6000fd5b508234111561164c573373ffffffffffffffffffffffffffffffffffffffff166108fc8434039081150290604051600060405180830381858888f1935050505015801561164a573d6000803e3d6000fd5b505b611657866000611cd9565b505050505050565b60006116b282600160008673ffffffffffffffffffffffffffffffffffffffff1673ffffffffffffffffffffffffffffffffffffffff168152602001908152602001600020612c4b90919063ffffffff16565b905092915050565b6116d583838360405180602001604052806000815250611d83565b505050565b6000806116f1836002612c6590919063ffffffff16565b50905080915050919050565b600061172d82604051806060016040528060298152602001613bbf602991396002612c949092919063ffffffff16565b9050919050565b8161173e816116fd565b73ffffffffffffffffffffffffffffffffffffffff163373ffffffffffffffffffffffffffffffffffffffff16146117c1576040517f08c379a0000000000000000000000000000000000000000000000000000000008152600401808060200182810382526038815260200180613af96038913960400191505060405180910390fd5b816000600d6000838152602001908152602001600020541161182e576040517f08c379a000000000000000000000000000000000000000000000000000000000815260040180806020018281038252602a815260200180613a53602a913960400191505060405180910390fd5b8383611839816116fd565b73ffffffffffffffffffffffffffffffffffffffff163373ffffffffffffffffffffffffffffffffffffffff1614156118bd576040517f08c379a000000000000000000000000000000000000000000000000000000000815260040180806020018281038252602c815260200180613ce0602c913960400191505060405180910390fd5b60006118c8866116fd565b90506118d43387612ba8565b6118df813388612956565b6118e98188612ba8565b6118f4338289612956565b6118ff866000611cd9565b50505050505050565b606060098054600181600116156101000203166002900480601f0160208091040260200160405190810160405280929190818152602001828054600181600116156101000203166002900480156119a05780601f10611975576101008083540402835291602001916119a0565b820191906000526020600020905b81548152906001019060200180831161198357829003601f168201915b5050505050905090565b60008073ffffffffffffffffffffffffffffffffffffffff168273ffffffffffffffffffffffffffffffffffffffff161415611a31576040517f08c379a000000000000000000000000000000000000000000000000000000000815260040180806020018281038252602a815260200180613b95602a913960400191505060405180910390fd5b611a78600160008473ffffffffffffffffffffffffffffffffffffffff1673ffffffffffffffffffffffffffffffffffffffff168152602001908152602001600020612cb3565b9050919050565b606060078054600181600116156101000203166002900480601f016020809104026020016040519081016040528092919081815260200182805460018160011615610100020316600290048015611b175780601f10611aec57610100808354040283529160200191611b17565b820191906000526020600020905b815481529060010190602001808311611afa57829003601f168201915b5050505050905090565b611b2961278c565b73ffffffffffffffffffffffffffffffffffffffff168273ffffffffffffffffffffffffffffffffffffffff161415611bca576040517f08c379a00000000000000000000000000000000000000000000000000000000081526004018080602001828103825260198152602001807f4552433732313a20617070726f766520746f2063616c6c65720000000000000081525060200191505060405180910390fd5b8060056000611bd761278c565b73ffffffffffffffffffffffffffffffffffffffff1673ffffffffffffffffffffffffffffffffffffffff16815260200190815260200160002060008473ffffffffffffffffffffffffffffffffffffffff1673ffffffffffffffffffffffffffffffffffffffff16815260200190815260200160002060006101000a81548160ff0219169083151502179055508173ffffffffffffffffffffffffffffffffffffffff16611c8461278c565b73ffffffffffffffffffffffffffffffffffffffff167f17307eab39ab6107e8899845ad3d59bd9653f200f220920489ca2b5937696c3183604051808215151515815260200191505060405180910390a35050565b81611ce3816116fd565b73ffffffffffffffffffffffffffffffffffffffff163373ffffffffffffffffffffffffffffffffffffffff1614611d66576040517f08c379a0000000000000000000000000000000000000000000000000000000008152600401808060200182810382526038815260200180613af96038913960400191505060405180910390fd5b81600d600085815260200190815260200160002081905550505050565b611d94611d8e61278c565b83612862565b611de9576040517f08c379a0000000000000000000000000000000000000000000000000000000008152600401808060200182810382526031815260200180613caf6031913960400191505060405180910390fd5b611df584848484612cc8565b50505050565b600b602052806000526040600020600091509050806000018054600181600116156101000203166002900480601f016020809104026020016040519081016040528092919081815260200182805460018160011615610100020316600290048015611ea75780601f10611e7c57610100808354040283529160200191611ea7565b820191906000526020600020905b815481529060010190602001808311611e8a57829003601f168201915b5050505050908060010154905082565b6060611ec28261276f565b611f17576040517f08c379a000000000000000000000000000000000000000000000000000000000815260040180806020018281038252602f815260200180613c5f602f913960400191505060405180910390fd5b6060600860008481526020019081526020016000208054600181600116156101000203166002900480601f016020809104026020016040519081016040528092919081815260200182805460018160011615610100020316600290048015611fc05780601f10611f9557610100808354040283529160200191611fc0565b820191906000526020600020905b815481529060010190602001808311611fa357829003601f168201915b50505050509050600060098054600181600116156101000203166002900490501415611fef578091505061219b565b6000815111156120c857600981604051602001808380546001816001161561010002031660029004801561205a5780601f1061203857610100808354040283529182019161205a565b820191906000526020600020905b815481529060010190602001808311612046575b505082805190602001908083835b6020831061208b5780518252602082019150602081019050602083039250612068565b6001836020036101000a0380198251168184511680821785525050505050509050019250505060405160208183030381529060405291505061219b565b60096120d384612d3a565b60405160200180838054600181600116156101000203166002900480156121315780601f1061210f576101008083540402835291820191612131565b820191906000526020600020905b81548152906001019060200180831161211d575b505082805190602001908083835b60208310612162578051825260208201915060208101905060208303925061213f565b6001836020036101000a038019825116818451168082178552505050505050905001925050506040516020818303038152906040529150505b919050565b806121aa816116fd565b73ffffffffffffffffffffffffffffffffffffffff163373ffffffffffffffffffffffffffffffffffffffff161461222d576040517f08c379a0000000000000000000000000000000000000000000000000000000008152600401808060200182810382526038815260200180613af96038913960400191505060405180910390fd5b612238338484611412565b505050565b6000600560008473ffffffffffffffffffffffffffffffffffffffff1673ffffffffffffffffffffffffffffffffffffffff16815260200190815260200160002060008373ffffffffffffffffffffffffffffffffffffffff1673ffffffffffffffffffffffffffffffffffffffff16815260200190815260200160002060009054906101000a900460ff16905092915050565b60606000806000600b60008681526020019081526020016000206000018054600181600116156101000203166002900480601f0160208091040260200160405190810160405280929190818152602001828054600181600116156101000203166002900480156123825780601f1061235757610100808354040283529160200191612382565b820191906000526020600020905b81548152906001019060200180831161236557829003601f168201915b505050505093506000600d600087815260200190815260200160002054119250600d60008681526020019081526020016000205491506123c1856116fd565b90509193509193565b80806040516020018082805190602001908083835b6020831061240257805182526020820191506020810190506020830392506123df565b6001836020036101000a03801982511681845116808217855250505050505090500191505060405160208183030381529060405280519060200120600c826040518082805190602001908083835b602083106124735780518252602082019150602081019050602083039250612450565b6001836020036101000a038019825116818451168082178552505050505050905001915050908152602001604051809103902060000160405160200180828054600181600116156101000203166002900480156125075780601f106124e5576101008083540402835291820191612507565b820191906000526020600020905b8154815290600101906020018083116124f3575b5050915050604051602081830303815290604052805190602001201415612579576040517f08c379a0000000000000000000000000000000000000000000000000000000008152600401808060200182810382526026815260200180613ad36026913960400191505060405180910390fd5b612583600a612e81565b600061258f600a612e97565b905061259961393d565b604051806040016040528085815260200183815250905080600b600084815260200190815260200160002060008201518160000190805190602001906125e0929190613957565b506020820151816001015590505080600c856040518082805190602001908083835b602083106126255780518252602082019150602081019050602083039250612602565b6001836020036101000a03801982511681845116808217855250505050505090500191505090815260200160405180910390206000820151816000019080519060200190612674929190613957565b506020820151816001015590505061268c3383612ea5565b612697306001611b21565b50505050565b600c81805160208101820180518482526020830160208501208183528095505050505050600091509050806000018054600181600116156101000203166002900480601f01602080910402602001604051908101604052809291908181526020018280546001816001161561010002031660029004801561275f5780601f106127345761010080835404028352916020019161275f565b820191906000526020600020905b81548152906001019060200180831161274257829003601f168201915b5050505050908060010154905082565b600061278582600261309990919063ffffffff16565b9050919050565b600033905090565b816004600083815260200190815260200160002060006101000a81548173ffffffffffffffffffffffffffffffffffffffff021916908373ffffffffffffffffffffffffffffffffffffffff160217905550808273ffffffffffffffffffffffffffffffffffffffff16612807836116fd565b73ffffffffffffffffffffffffffffffffffffffff167f8c5be1e5ebec7d5bd14f71427d1e84f3dd0314c0f7b2291e5b200ac8c7c3b92560405160405180910390a45050565b600061285b826000016130b3565b9050919050565b600061286d8261276f565b6128c2576040517f08c379a000000000000000000000000000000000000000000000000000000000815260040180806020018281038252602c815260200180613b31602c913960400191505060405180910390fd5b60006128cd836116fd565b90508073ffffffffffffffffffffffffffffffffffffffff168473ffffffffffffffffffffffffffffffffffffffff16148061293c57508373ffffffffffffffffffffffffffffffffffffffff1661292484611154565b73ffffffffffffffffffffffffffffffffffffffff16145b8061294d575061294c818561223d565b5b91505092915050565b8273ffffffffffffffffffffffffffffffffffffffff16612976826116fd565b73ffffffffffffffffffffffffffffffffffffffff16146129e2576040517f08c379a0000000000000000000000000000000000000000000000000000000008152600401808060200182810382526029815260200180613c366029913960400191505060405180910390fd5b600073ffffffffffffffffffffffffffffffffffffffff168273ffffffffffffffffffffffffffffffffffffffff161415612a68576040517f08c379a0000000000000000000000000000000000000000000000000000000008152600401808060200182810382526024815260200180613aaf6024913960400191505060405180910390fd5b612a738383836130c4565b612a7e600082612794565b612acf81600160008673ffffffffffffffffffffffffffffffffffffffff1673ffffffffffffffffffffffffffffffffffffffff1681526020019081526020016000206130c990919063ffffffff16565b50612b2181600160008573ffffffffffffffffffffffffffffffffffffffff1673ffffffffffffffffffffffffffffffffffffffff1681526020019081526020016000206130e390919063ffffffff16565b50612b38818360026130fd9092919063ffffffff16565b50808273ffffffffffffffffffffffffffffffffffffffff168473ffffffffffffffffffffffffffffffffffffffff167fddf252ad1be2c89b69c2b068fc378daa952ba7f163c4a11628f55a4df523b3ef60405160405180910390a4505050565b60008082905080915050919050565b3073ffffffffffffffffffffffffffffffffffffffff1663095ea7b383836040518363ffffffff1660e01b8152600401808373ffffffffffffffffffffffffffffffffffffffff1673ffffffffffffffffffffffffffffffffffffffff16815260200182815260200192505050600060405180830381600087803b158015612c2f57600080fd5b505af1158015612c43573d6000803e3d6000fd5b505050505050565b6000612c5a8360000183613132565b60001c905092915050565b600080600080612c7886600001866131b5565b915091508160001c8160001c8090509350935050509250929050565b6000612ca7846000018460001b8461324e565b60001c90509392505050565b6000612cc182600001613344565b9050919050565b612cd3848484612956565b612cdf84848484613355565b612d34576040517f08c379a0000000000000000000000000000000000000000000000000000000008152600401808060200182810382526032815260200180613a7d6032913960400191505060405180910390fd5b50505050565b60606000821415612d82576040518060400160405280600181526020017f30000000000000000000000000000000000000000000000000000000000000008152509050612e7c565b600082905060005b60008214612dac578080600101915050600a8281612da457fe5b049150612d8a565b60608167ffffffffffffffff81118015612dc557600080fd5b506040519080825280601f01601f191660200182016040528015612df85781602001600182028036833780820191505090505b50905060006001830390508593505b60008414612e7457600a8481612e1957fe5b0660300160f81b82828060019003935081518110612e3357fe5b60200101907effffffffffffffffffffffffffffffffffffffffffffffffffffffffffffff1916908160001a905350600a8481612e6c57fe5b049350612e07565b819450505050505b919050565b6001816000016000828254019250508190555050565b600081600001549050919050565b600073ffffffffffffffffffffffffffffffffffffffff168273ffffffffffffffffffffffffffffffffffffffff161415612f48576040517f08c379a00000000000000000000000000000000000000000000000000000000081526004018080602001828103825260208152602001807f4552433732313a206d696e7420746f20746865207a65726f206164647265737381525060200191505060405180910390fd5b612f518161276f565b15612fc4576040517f08c379a000000000000000000000000000000000000000000000000000000000815260040180806020018281038252601c8152602001807f4552433732313a20746f6b656e20616c7265616479206d696e7465640000000081525060200191505060405180910390fd5b612fd0600083836130c4565b61302181600160008573ffffffffffffffffffffffffffffffffffffffff1673ffffffffffffffffffffffffffffffffffffffff1681526020019081526020016000206130e390919063ffffffff16565b50613038818360026130fd9092919063ffffffff16565b50808273ffffffffffffffffffffffffffffffffffffffff16600073ffffffffffffffffffffffffffffffffffffffff167fddf252ad1be2c89b69c2b068fc378daa952ba7f163c4a11628f55a4df523b3ef60405160405180910390a45050565b60006130ab836000018360001b613678565b905092915050565b600081600001805490509050919050565b505050565b60006130db836000018360001b61369b565b905092915050565b60006130f5836000018360001b613783565b905092915050565b6000613129846000018460001b8473ffffffffffffffffffffffffffffffffffffffff1660001b6137f3565b90509392505050565b600081836000018054905011613193576040517f08c379a0000000000000000000000000000000000000000000000000000000008152600401808060200182810382526022815260200180613a316022913960400191505060405180910390fd5b8260000182815481106131a257fe5b9060005260206000200154905092915050565b60008082846000018054905011613217576040517f08c379a0000000000000000000000000000000000000000000000000000000008152600401808060200182810382526022815260200180613be86022913960400191505060405180910390fd5b600084600001848154811061322857fe5b906000526020600020906002020190508060000154816001015492509250509250929050565b60008084600101600085815260200190815260200160002054905060008114158390613315576040517f08c379a00000000000000000000000000000000000000000000000000000000081526004018080602001828103825283818151815260200191508051906020019080838360005b838110156132da5780820151818401526020810190506132bf565b50505050905090810190601f1680156133075780820380516001836020036101000a031916815260200191505b509250505060405180910390fd5b5084600001600182038154811061332857fe5b9060005260206000209060020201600101549150509392505050565b600081600001805490509050919050565b60006133768473ffffffffffffffffffffffffffffffffffffffff166138cf565b6133835760019050613670565b600060608573ffffffffffffffffffffffffffffffffffffffff1663150b7a0260e01b6133ae61278c565b898888604051602401808573ffffffffffffffffffffffffffffffffffffffff1673ffffffffffffffffffffffffffffffffffffffff1681526020018473ffffffffffffffffffffffffffffffffffffffff1673ffffffffffffffffffffffffffffffffffffffff16815260200183815260200180602001828103825283818151815260200191508051906020019080838360005b8381101561345e578082015181840152602081019050613443565b50505050905090810190601f16801561348b5780820380516001836020036101000a031916815260200191505b5095505050505050604051602081830303815290604052907bffffffffffffffffffffffffffffffffffffffffffffffffffffffff19166020820180517bffffffffffffffffffffffffffffffffffffffffffffffffffffffff83818316178352505050506040518082805190602001908083835b602083106135235780518252602082019150602081019050602083039250613500565b6001836020036101000a0380198251168184511680821785525050505050509050019150506000604051808303816000865af19150503d8060008114613585576040519150601f19603f3d011682016040523d82523d6000602084013e61358a565b606091505b5091509150816135f8576000815111156135a75780518082602001fd5b6040517f08c379a0000000000000000000000000000000000000000000000000000000008152600401808060200182810382526032815260200180613a7d6032913960400191505060405180910390fd5b600081806020019051602081101561360f57600080fd5b8101908080519060200190929190505050905063150b7a0260e01b7bffffffffffffffffffffffffffffffffffffffffffffffffffffffff1916817bffffffffffffffffffffffffffffffffffffffffffffffffffffffff19161493505050505b949350505050565b600080836001016000848152602001908152602001600020541415905092915050565b6000808360010160008481526020019081526020016000205490506000811461377757600060018203905060006001866000018054905003905060008660000182815481106136e657fe5b906000526020600020015490508087600001848154811061370357fe5b906000526020600020018190555060018301876001016000838152602001908152602001600020819055508660000180548061373b57fe5b6001900381819060005260206000200160009055905586600101600087815260200190815260200160002060009055600194505050505061377d565b60009150505b92915050565b600061378f838361391a565b6137e85782600001829080600181540180825580915050600190039060005260206000200160009091909190915055826000018054905083600101600084815260200190815260200160002081905550600190506137ed565b600090505b92915050565b600080846001016000858152602001908152602001600020549050600081141561389a578460000160405180604001604052808681526020018581525090806001815401808255809150506001900390600052602060002090600202016000909190919091506000820151816000015560208201518160010155505084600001805490508560010160008681526020019081526020016000208190555060019150506138c8565b828560000160018303815481106138ad57fe5b90600052602060002090600202016001018190555060009150505b9392505050565b60008060007fc5d2460186f7233c927e7db2dcc703c0e500b653ca82273b7bfad8045d85a47060001b9050833f915080821415801561391157506000801b8214155b92505050919050565b600080836001016000848152602001908152602001600020541415905092915050565b604051806040016040528060608152602001600081525090565b828054600181600116156101000203166002900490600052602060002090601f016020900481019282601f1061399857805160ff19168380011785556139c6565b828001600101855582156139c6579182015b828111156139c55782518255916020019190600101906139aa565b5b5090506139d391906139d7565b5090565b6139f991905b808211156139f55760008160009055506001016139dd565b5090565b9056fe4572726f723a20496e73756666696369656e742066756e64732070726f766964656420746f20707572636861736520737461722e456e756d657261626c655365743a20696e646578206f7574206f6620626f756e64734572726f723a20546869732073746172206973206e6f7420666f722073616c65206f722074726164652e4552433732313a207472616e7366657220746f206e6f6e20455243373231526563656976657220696d706c656d656e7465724552433732313a207472616e7366657220746f20746865207a65726f20616464726573734572726f723a20536f6d656f6e6520616c7265616479206f776e73207468697320737461722e4572726f723a204f6e6c7920746865206f776e6572206f66207468697320737461722063616e206c69737420697420666f722073616c652e4552433732313a206f70657261746f7220717565727920666f72206e6f6e6578697374656e7420746f6b656e4552433732313a20617070726f76652063616c6c6572206973206e6f74206f776e6572206e6f7220617070726f76656420666f7220616c6c4552433732313a2062616c616e636520717565727920666f7220746865207a65726f20616464726573734552433732313a206f776e657220717565727920666f72206e6f6e6578697374656e7420746f6b656e456e756d657261626c654d61703a20696e646578206f7574206f6620626f756e64734552433732313a20617070726f76656420717565727920666f72206e6f6e6578697374656e7420746f6b656e4552433732313a207472616e73666572206f6620746f6b656e2074686174206973206e6f74206f776e4552433732314d657461646174613a2055524920717565727920666f72206e6f6e6578697374656e7420746f6b656e4552433732313a20617070726f76616c20746f2063757272656e74206f776e65724552433732313a207472616e736665722063616c6c6572206973206e6f74206f776e6572206e6f7220617070726f7665644572726f723a20596f752063616e6e6f74207472616465207374617273207769746820796f757273656c662ea2646970667358221220a3a6a47779258f0ff3d678eb78a844b92153224319ed86a0221c46bc44633f1464736f6c63430006080033",
  "immutableReferences": {},
  "source": "pragma solidity ^0.6.0;\n\nimport '../node_modules/@openzeppelin/contracts/token/ERC721/ERC721.sol';\nimport \"../node_modules/@openzeppelin/contracts/utils/Counters.sol\";\n\n\ncontract StarNetwork is ERC721 {\n    using Counters for Counters.Counter;\n    Counters.Counter private generateId;\n\n    constructor() ERC721('StarNetwork', 'STARN') public payable {\n    }\n\n    struct Star {\n        string name;\n        uint256 id;\n    }\n\n    mapping (uint256 => Star) public tokenId_StarInfo;\n    mapping (string => Star) public tokenName_StarInfo;\n    mapping (uint256 => uint256) public tokenId_Price;\n\n\n    modifier isUnique(string memory name) {\n        require(\n            keccak256(abi.encodePacked(tokenName_StarInfo[name].name)) != keccak256(abi.encodePacked(name)),\n            \"Error: Someone already owns this star.\"\n        );\n        _;\n    }\n\n    modifier onlyOwnerOf(uint256 tokenId) {\n        require(\n            msg.sender == ownerOf(tokenId),\n            'Error: Only the owner of this star can list it for sale.'\n        );\n        _;\n    }\n\n    modifier isUpForBarter(uint256 tokenId) {\n        require(\n            tokenId_Price[tokenId] > 0,\n            'Error: This star is not for sale or trade.'\n        );\n        _;\n    }\n\n    modifier hasEnoughFunds(uint256 tokenId) {\n        require(\n            msg.value > tokenId_Price[tokenId],\n            'Error: Insufficient funds provided to purchase star.'\n        );\n        _;\n    }\n\n    modifier notSameOwner(uint256 senderToken, uint256 tradedToken) {\n        require(\n            msg.sender != ownerOf(tradedToken),\n            'Error: You cannot trade stars with yourself.'\n        );\n        _;\n    }\n\n    function makePayable(address provided)\n        internal pure returns (address payable seller) {\n            uint160 formattedProvided = uint160(provided);\n            seller = address(formattedProvided);\n    }\n\n    function approveTransaction(address buyer, uint256 tokenId)\n        internal {\n            this.approve(buyer, tokenId);\n    }\n\n    function createStar(string memory name)\n        public isUnique(name) {\n            generateId.increment();\n            uint256 tokenId = generateId.current();\n            Star memory createdStar = Star(name, tokenId);\n            tokenId_StarInfo[tokenId] = createdStar;\n            tokenName_StarInfo[name] = createdStar;\n            _mint(msg.sender, tokenId);\n            setApprovalForAll(address(this), true);\n    }\n\n    function lookupStarById(uint256 tokenId)\n        public view returns (string memory name, bool forSale,  uint256 price, address owner) {\n            name = tokenId_StarInfo[tokenId].name;\n            forSale = tokenId_Price[tokenId] > 0;\n            price = tokenId_Price[tokenId];\n            owner = ownerOf(tokenId);\n    }\n\n    function lookupStarByName(string memory name)\n        public view returns (uint256 tokenId, bool forSale, uint256 price, address owner) {\n            tokenId = tokenName_StarInfo[name].id;\n            forSale = tokenId_Price[tokenId] > 0;\n            price = tokenId_Price[tokenId];\n            owner = ownerOf(tokenId);\n    }\n\n    function listStarForBarter(uint256 tokenId, uint256 price)\n        public onlyOwnerOf(tokenId) {\n            tokenId_Price[tokenId] = price;\n    }\n\n    function buyStar(uint256 tokenId)\n        public isUpForBarter(tokenId) hasEnoughFunds(tokenId) payable {\n            uint256 starCost = tokenId_Price[tokenId];\n            address ownerAddress = ownerOf(tokenId);\n            address payable ownerAddressPayable = makePayable(ownerAddress);\n            approveTransaction(msg.sender, tokenId);\n            _transfer(ownerAddress, msg.sender, tokenId);\n            setApprovalForAll(address(this), true);\n            ownerAddressPayable.transfer(starCost);\n            if (msg.value > starCost) {\n                msg.sender.transfer(msg.value - starCost);\n            }\n            listStarForBarter(tokenId, 0);\n    }\n\n    function exchangeStar(uint256 senderToken, uint256 tradedToken) public\n        onlyOwnerOf(senderToken) isUpForBarter(tradedToken) notSameOwner(senderToken, tradedToken) {\n            address tradedTokenOwner = ownerOf(tradedToken);\n            approveTransaction(msg.sender, tradedToken);\n            _transfer(tradedTokenOwner, msg.sender, tradedToken);\n            approveTransaction(tradedTokenOwner, senderToken);\n            _transfer(msg.sender, tradedTokenOwner, senderToken);\n            listStarForBarter(tradedToken, 0);\n    }\n\n    function transferStar(address to, uint256 tokenId) public\n        onlyOwnerOf(tokenId) {\n            transferFrom(msg.sender, to, tokenId);\n    }\n}",
  "sourcePath": "/Users/sameer/starNotary/contracts/StarNetwork.sol",
  "compiler": {
    "name": "solc",
    "version": "0.6.8+commit.0bbfe453.Emscripten.clang"
  },
  "schemaVersion": "3.1.0",
  "updatedAt": "2020-05-21T00:11:36.547Z",
  "networkType": "quorum",
  "devdoc": {
    "methods": {
      "approve(address,uint256)": {
        "details": "Approves another address to transfer the given token ID The zero address indicates there is no approved address. There can only be one approved address per token at a given time. Can only be called by the token owner or an approved operator.",
        "params": {
          "to": "address to be approved for the given token ID",
          "tokenId": "uint256 ID of the token to be approved"
        }
      },
      "balanceOf(address)": {
        "details": "Gets the balance of the specified address.",
        "params": {
          "owner": "address to query the balance of"
        },
        "returns": {
          "_0": "uint256 representing the amount owned by the passed address"
        }
      },
      "baseURI()": {
        "details": "Returns the base URI set via {_setBaseURI}. This will be automatically added as a prefix in {tokenURI} to each token's URI, or to the token ID if no specific URI is set for that token ID."
      },
      "getApproved(uint256)": {
        "details": "Gets the approved address for a token ID, or zero if no address set Reverts if the token ID does not exist.",
        "params": {
          "tokenId": "uint256 ID of the token to query the approval of"
        },
        "returns": {
          "_0": "address currently approved for the given token ID"
        }
      },
      "isApprovedForAll(address,address)": {
        "details": "Tells whether an operator is approved by a given owner.",
        "params": {
          "operator": "operator address which you want to query the approval of",
          "owner": "owner address which you want to query the approval of"
        },
        "returns": {
          "_0": "bool whether the given operator is approved by the given owner"
        }
      },
      "name()": {
        "details": "Gets the token name.",
        "returns": {
          "_0": "string representing the token name"
        }
      },
      "ownerOf(uint256)": {
        "details": "Gets the owner of the specified token ID.",
        "params": {
          "tokenId": "uint256 ID of the token to query the owner of"
        },
        "returns": {
          "_0": "address currently marked as the owner of the given token ID"
        }
      },
      "safeTransferFrom(address,address,uint256)": {
        "details": "Safely transfers the ownership of a given token ID to another address If the target address is a contract, it must implement {IERC721Receiver-onERC721Received}, which is called upon a safe transfer, and return the magic value `bytes4(keccak256(\"onERC721Received(address,address,uint256,bytes)\"))`; otherwise, the transfer is reverted. Requires the msg.sender to be the owner, approved, or operator",
        "params": {
          "from": "current owner of the token",
          "to": "address to receive the ownership of the given token ID",
          "tokenId": "uint256 ID of the token to be transferred"
        }
      },
      "safeTransferFrom(address,address,uint256,bytes)": {
        "details": "Safely transfers the ownership of a given token ID to another address If the target address is a contract, it must implement {IERC721Receiver-onERC721Received}, which is called upon a safe transfer, and return the magic value `bytes4(keccak256(\"onERC721Received(address,address,uint256,bytes)\"))`; otherwise, the transfer is reverted. Requires the _msgSender() to be the owner, approved, or operator",
        "params": {
          "_data": "bytes data to send along with a safe transfer check",
          "from": "current owner of the token",
          "to": "address to receive the ownership of the given token ID",
          "tokenId": "uint256 ID of the token to be transferred"
        }
      },
      "setApprovalForAll(address,bool)": {
        "details": "Sets or unsets the approval of a given operator An operator is allowed to transfer all tokens of the sender on their behalf.",
        "params": {
          "approved": "representing the status of the approval to be set",
          "operator": "operator address to set the approval"
        }
      },
      "supportsInterface(bytes4)": {
        "details": "See {IERC165-supportsInterface}.     * Time complexity O(1), guaranteed to always use less than 30 000 gas."
      },
      "symbol()": {
        "details": "Gets the token symbol.",
        "returns": {
          "_0": "string representing the token symbol"
        }
      },
      "tokenByIndex(uint256)": {
        "details": "Gets the token ID at a given index of all the tokens in this contract Reverts if the index is greater or equal to the total number of tokens.",
        "params": {
          "index": "uint256 representing the index to be accessed of the tokens list"
        },
        "returns": {
          "_0": "uint256 token ID at the given index of the tokens list"
        }
      },
      "tokenOfOwnerByIndex(address,uint256)": {
        "details": "Gets the token ID at a given index of the tokens list of the requested owner.",
        "params": {
          "index": "uint256 representing the index to be accessed of the requested tokens list",
          "owner": "address owning the tokens list to be accessed"
        },
        "returns": {
          "_0": "uint256 token ID at the given index of the tokens list owned by the requested address"
        }
      },
      "tokenURI(uint256)": {
        "details": "Returns the URI for a given token ID. May return an empty string.     * If a base URI is set (via {_setBaseURI}), it is added as a prefix to the token's own URI (via {_setTokenURI}).     * If there is a base URI but no token URI, the token's ID will be used as its URI when appending it to the base URI. This pattern for autogenerated token URIs can lead to large gas savings.     * .Examples |=== |`_setBaseURI()` |`_setTokenURI()` |`tokenURI()` | \"\" | \"\" | \"\" | \"\" | \"token.uri/123\" | \"token.uri/123\" | \"token.uri/\" | \"123\" | \"token.uri/123\" | \"token.uri/\" | \"\" | \"token.uri/<tokenId>\" |===     * Requirements:     * - `tokenId` must exist."
      },
      "totalSupply()": {
        "details": "Gets the total amount of tokens stored by the contract.",
        "returns": {
          "_0": "uint256 representing the total amount of tokens"
        }
      },
      "transferFrom(address,address,uint256)": {
        "details": "Transfers the ownership of a given token ID to another address. Usage of this method is discouraged, use {safeTransferFrom} whenever possible. Requires the msg.sender to be the owner, approved, or operator.",
        "params": {
          "from": "current owner of the token",
          "to": "address to receive the ownership of the given token ID",
          "tokenId": "uint256 ID of the token to be transferred"
        }
      }
    }
  },
  "userdoc": {
    "methods": {}
  }
}